:020000040800F2
:10000000A814002079020008A53D0008053A000860
:10001000A13D000871040008D54D00080000000053
:100020000000000000000000000000007542000811
:100030008D04000800000000A93D00087942000876
:10004000930200089302000893020008930200083C
:10005000930200089302000893020008930200082C
:100060009302000893020008930200087504000838
:10007000810400089302000893020008930200081C
:1000800093020008930200089302000893020008FC
:10009000930200089D040008A904000893020008C8
:1000A000930200089302000891420008930200089E
:1000B00093020008930200089302000893020008CC
:1000C000930200089302000893020008713F0008A1
:1000D0007D3F00089302000893020008C94D000804
:1000E000930200089302000893020008930200089C
:1000F000930200089302000893020008930200088C
:10010000930200089302000893020008930200087B
:100110009302000893020008C1420008214400082D
:10012000930200089302000893020008930200085B
:10013000930200089302000893020008930200084B
:1001400093020008930200089302000800000000D8
:10015000000000000000000000000000000000009F
:1001600000000000000000000000000093020008F2
:10017000930200089302000893020008930200080B
:1001800093020008930200089302000893020008FB
:100190009302000800000000B5040008C104000834
:1001A00093020008930200089302000893020008DB
:1001B00093020008930200089302000893020008CB
:1001C00093020008930200089302000893020008BB
:1001D000930200089302000800F002F800F03CF8D7
:1001E0000AA090E8000C82448344AAF10107DA4592
:1001F00001D100F031F8AFF2090EBAE80F0013F0A8
:10020000010F18BFFB1A43F0010318470C720000DE
:100210002C720000103A24BF78C878C1FAD852076F
:1002200024BF30C830C144BF04680C607047000070
:100230000023002400250026103A28BF78C1FBD8EF
:10024000520728BF30C148BF0B6070471FB507F089
:10025000A0F81FBD10B510BD00F0D4F81146FFF78F
:10026000F5FF05F0D1FF00F0F2F803B4FFF7F2FF5D
:1002700003BC00F0F5F80000094880470948004732
:10028000FEE7FEE7FEE7FEE7FEE7FEE7FEE7FEE746
:10029000FEE7FEE704480549054A064B70470000A3
:1002A0007D420008D9010008A8080020A8140020F9
:1002B000A80C0020A80C002053EA020C00F0698072
:1002C0002DE9F04B4FF00006002B1FBFB3FA83F56A
:1002D00003FA05F424FA05F65E4012BF1643B2FA9B
:1002E00082F502FA05F4C5F120051EBF22FA05FCCD
:1002F00044EA0C04203556EA044C4FEA144418BF73
:10030000641C4FF000084FF00009904271EB030CA1
:1003100039D3002919BFB1FA81F701FA07F6B0FA0B
:1003200080F700FA07F6C7F120071EBF20FA07FC86
:1003300046EA0C062037B6FBF4FCA7EB0507103F96
:1003400007F01F0BCBF120062CFA06F60CFA0BFB7C
:1003500044BFB3460026202FA4BF5E464FF0000BDB
:100360005BEA060C08BF4FF0010B19EB0B0948EBD9
:100370000608ABFB027C06FB02CC0BFB03CCC01BCC
:1003800071EB0C01C1E70B46024641464846BDE809
:10039000F08B13B5084318BF4FF0FF300146AFF3A1
:1003A0000080BDE81C4070474FF0000200B51346C6
:1003B00094469646203922BFA0E80C50A0E80C5085
:1003C000B1F12001BFF4F7AF090728BFA0E80C5036
:1003D00048BF0CC05DF804EB890028BF40F8042B2F
:1003E00008BF704748BF20F8022B11F0804F18BF9C
:1003F00000F8012B704770477047704700487047FE
:10040000200000207546FFF7F9FFAE46050069465B
:10041000534620F00700854618B020B5FFF73AFF95
:10042000BDE820404FF000064FF000074FF00008F5
:100430004FF0000BAC46ACE8C009ACE8C009ACE832
:10044000C009ACE8C00921F007018D46704710B51E
:100450000446AFF300802046BDE81040FFF705BF1B
:1004600001491820ABBEFEE72600020070470000DD
:10047000FEE7000040F29440C2F2000000F0D0B865
:1004800040F2F440C2F2000000F0CAB87047000029
:10049000EFF3108072B600BFFEE7000040F2545048
:1004A000C2F2000000F016BC40F25450C2F200004C
:1004B00000F010BC40F2B850C2F2000000F00ABCDC
:1004C00040F2B850C2F2000000F004BCB0B540F2F7
:1004D000C405C2F20005E869002201284FF09040EF
:1004E0004FF001014FF00004B8BF012201F098F86D
:1004F000A869002201284FF090404FF00201B8BFD8
:10050000012201F08DF8686A002201284FF0904026
:100510004FF00401B8BF012201F082F8286B0821D6
:100520000128B8BF01244FF090402246BDE8B040FA
:1005300001F076B880B5014690F82500022824D154
:100540000868D1E910CE8A6C036823F00E030360BB
:10055000136823F480731360026822F001020260C2
:100560000EF01F00012202FA00F0CCF80400D1E9DD
:1005700013205060486D60B1026822F480720260FE
:10058000D1E916024260002004E00420C863012083
:1005900000E00020012281F82520002281F824209B
:1005A00080BD000080B590F8251002292DD101688A
:1005B000D0E910CE826C0B6823F00E030B600B6841
:1005C00023F001030B60116821F4807111600EF0BB
:1005D0001F02012101FA02F2CCF80420D0E9133203
:1005E0005A60426D32B1136823F480731360D0E90E
:1005F0001623536080F82510826B002180F82410A8
:100600000AB190470021084680BD0421C163012141
:10061000002280F8251080F82420084680BD0000C4
:10062000B0B50268D0E910C4DCF80050136804F0DB
:100630001F0E590713D5042101FA0EF414EA05011F
:100640000DD01168890603D4116821F004011160EE
:10065000CCF80440016BD1B3BDE8B040084799071E
:1006600019D5022101FA0EF414EA050113D011681C
:10067000890606D4116821F00A011160012180F871
:100680002510CCF80440C16A002280F82420F1B182
:10069000BDE8B0400847190719D5082101FA0EF145
:1006A000294008BFB0BD116821F00E011160012181
:1006B00001FA0EF2CCF80420C16380F82510416BDA
:1006C000002280F8242011B1BDE8B0400847B0BD39
:1006D00000284FF0010100F088802DE9F04740F23A
:1006E000000CC4F2020C02684FF6F8340CF5816875
:1006F000CBF6FD74424538BF04F580644CF6CD4519
:100700001444CCF6CC45A4FB054E6FF0070454FA14
:1007100082F4A4FB05490CF580636FF00305D0E972
:100720000264D0F810A03CBF0023C4F2020305EA23
:100730009E05C0E91035022380F82530136847F67E
:10074000F077BB4333432343476943EA0A03846991
:100750003B43C7692343046A3B4323431360424539
:100760000CF5026238BF0CF50062AB180CF508629C
:10077000C0E91232C9F3041240F6840C01FA02F403
:10078000B6F5804FC4F2020C046505D1002141602A
:100790001960CCF8004019E04168CAB20139032958
:1007A0004FF000011A60CCF800400FD8013A0CEB72
:1007B000820747F87C1F02F01F01012202FA01F3B1
:1007C0000CF1BC023946CCF8C03001E00022002315
:1007D00000F1540C8CE80E0000210122C16380F866
:1007E000252080F82410BDE8F04708467047000037
:1007F0002DE9F04190F824C0BCF1010F43D04FF037
:10080000010C80F824C090F825C0BCF1010F37D14D
:100810004FF0020C80F825C04FF0000CC0F83CC02F
:10082000D0F800C000F14C0E9EE83040DCF80060CB
:10083000BEF1000F26F00106CCF8006065601CBF19
:10084000D0E916456560D0E91076012506F01F064F
:100850008468B540D0F830807D60CCF804300B4619
:10086000102C04BF13460A46CCF80830CCF80C20F4
:10087000DCF80010B8F1000F08D041F00E010DE0D7
:10088000002180F824100220BDE8F08121F004014D
:10089000CCF80010DCF8001041F00A01CCF8001090
:1008A000806C0168C90303D5016841F4807101605F
:1008B000BEF1000F05D0DEF8000040F48070CEF8E5
:1008C0000000DCF8000040F00100CCF8000000203F
:1008D000BDE8F081B0B5044600F0A8FE054640F240
:1008E0000800C2F200004068611C18BF044400BF49
:1008F00000F09CFE401BA042FAD3B0BD10B590F8AA
:100900005C30013B012B69D8006811F0070CD0F86E
:1009100058E00EF0010300D01BB311F0380F02D0E5
:100920001EF002041DD011F4E07F02D01EF004047A
:1009300017D011F4F05F02D01EF0080411D011F4AA
:10094000604F02D01EF010040BD011F4403F02D0D3
:100950001EF0200405D011F47C0F06D01EF04004D8
:1009600003D1C46D44F00104C465002B18BFBCF171
:10097000000F3BD111F0380F18BF1EF0020335D124
:1009800011F4E07F18BF1EF004032FD111F4F05FC3
:1009900018BF1EF0080329D111F4604F18BF1EF0D4
:1009A000100323D111F4403F18BF1EF020031DD1C6
:1009B00011F47C0F18BF1EF0400317D10B061BD497
:1009C000CB0504D5D0F8E0301A43C0F8E02000F1A0
:1009D0005402002013681943116010BD00F1600239
:1009E0000120022113681943116010BDC36D43F04B
:1009F0000203C3650B06E3D5D0F8DC301343C0F81F
:100A0000DC30CB05E3D5DDE72DE9F04F90F85C3025
:100A1000022B49D1D0F800E0DEF8C4309B024AD462
:100A2000DEF8C43001F1100AC3F3014CD1E90268C9
:100A30009AE88006D1E9003B3E43CD6946EA0307C8
:100A4000BBF1000FD1F820B047F08047446D08BFDC
:100A500046EA834745EA0B6343EA0A0343EA09038C
:100A60000CEBCC0643EA084504EBC60344F83670A9
:100A70005D60CC687CB147F2E63508330332002470
:100A8000C0F60005161956F8036C1E51CE680434E2
:100A9000AE5DB442F6D3012101FA0CF1CEF8CC10D0
:100AA00081650020BDE8F08F016E41F0080101660C
:100AB0000120BDE8F08F016E41F400710166012054
:100AC000BDE8F08F80B590F85C20013A012A13D878
:100AD0000A68BAB101F1040ED1E904319EE804506C
:100AE000406C43EA4E7E41EA8C7100EBC20340F851
:100AF00032E00020596080BD016E41F002010166C4
:100B0000012080BDD1E90323D1E901CED206496994
:100B100042EA8E7242EA0342006C114340F82C1004
:100B2000002080BD80B5844690F85C00012813D178
:100B3000DCF800C092005CF8800FDDF808E042EAC3
:100B4000011141EA430120F03F0041EA0E01014357
:100B50000020CCF8001080BD5CF8600F40F004016C
:100B60000120CCF8001080BD7047000070470000E5
:100B70002DE9F04390F85C70022F1AD1D0F800C034
:100B800040291DD1DCF890703F0700F09A80DCF816
:100B90009070FF0146BFDCF88070C7F34027002744
:100BA000DCF89060C6F3012606EB070C00F148075D
:100BB0001BE0016E41F0080101660120BDE8F083F1
:100BC000DCF898703F077CD0DCF89870FF0146BFD6
:100BD000DCF88070C7F300270027DCF89860C6F3C4
:100BE000012606EB070C00F14C073F680CEBCC0626
:100BF00057F8365007EBC60E15F08045556057F88C
:100C00003650C5F38A4418BF25F06044146057F885
:100C1000365005F00055956057F8364004F0004412
:100C20001461BEF80440D461BEF8064014F00F040D
:100C3000D460DEF8044004F480145461DEF804400B
:100C400004F4001494619EF8074004F07F041462D9
:100C5000DEF804404FEAD474546228D047F2E638F4
:100C60000024C0F6000800BF0EEB0406377A651CAE
:100C70001F55D76818F80770BD4218D2757A1F192A
:100C80007D70D56818F80590A51C4D450FD2B57A32
:100C9000BD70D56818F80590E51C4D4507D2F57A6A
:100CA0000434FD70D56818F80550AC42DCD30068F8
:100CB00040290CBFC0F894C0C0F89CC00020BDE81B
:100CC000F083016E41F4807101660120BDE8F0837C
:100CD000704700002DE9F04F85B004460068016DB3
:100CE000426D056DD0F85490D0F850A0D0F85480E3
:100CF000036D01EA020B0493436D0393036D0293AA
:100D0000436D0193436D076D1F407B0659D405EA7F
:100D10000906F8050BF4E0555ED408EA0A0806F067
:100D200007062DB1206829460565204600F086FBA0
:100D300008F038052EB1206831460665204600F0DF
:100D40002BFA2DB1206829460565204600F056FB98
:100D5000B80554D438065BD4B80466D43804DDE949
:100D6000011000EA010506D520684FF40041016535
:100D7000204600F05BFBDDE903100840790405F430
:100D8000602107D522684FF480431365226E42F03C
:100D90008002226600F4710521B1206801652046B9
:100DA000FFF7E4FE25B120680565206E2843206624
:100DB000206E002847D0204605B0BDE8F04FFFF771
:100DC000D3BE402101652046FFF782FF05EA0906F0
:100DD000F8050BF4E055A0D52068D0F8D810D0F86D
:100DE000E02011404FF480720265204600F022FBA3
:100DF00008EA0A08002D06F0070693D198E7206854
:100E00004FF400710165204600F01AFB3806A3D5A7
:100E10002068D0F8D410D0F8DC2011408022026580
:100E2000204600F009FBB80498D520684FF4005123
:100E30000165204600F0FCFA3804DDE9011000EA03
:100E4000010591D497E705B0BDE8F08F70B5D8B132
:100E5000044690F85C0028B9002084F85D00204624
:100E600000F0FCF82068816921F01001816100F038
:100E7000DDFB054620688169090707D500F0D6FB30
:100E8000401B0B28F6D312E0012070BD816941F0B0
:100E90000101816100F0CAFB054600BF206881693D
:100EA000C9070DD100F0C2FB401B0B28F6D3206E02
:100EB000032140F001002066012084F85C1070BD21
:100EC000826946F2004CC4F2000C42F00202604516
:100ED000826102D16268CCF80021227C8369012AF8
:100EE00043F0400508BF23F040058561627C8369BB
:100EF000012A23F4804508BF43F480458561A27C24
:100F00008369012A43F4805508BF23F48055856125
:100F10008269D4E902E322F4407545EA0E05856151
:100F2000856925F0A4058561056925F01005056131
:100F3000C3B1012B03D1836943F0040311E0856938
:100F4000022B02D145F020030BE045F080058561BE
:100F50000569032B45F01005056103D1836943F052
:100F60002003836104F114052ACD226A5E1E6FF00E
:100F7000FF0303EB052545EA4665013A2A430025B0
:100F8000CFF6FF7505EB01411143BEF5407FC1610E
:100F900010D1D4E909E2D4E90B61013A03EB06234D
:100FA0001A436FF00F0303EB0111114305EB0E42DF
:100FB0001143C160D4E90D13E26BD0F8C060324335
:100FC000C0F8C0200CF580660CF58042B04204BF2A
:100FD0004AF25072C4F200020CF50066B04208BF3B
:100FE00002F5D4622264D0F8806026F4F81646EA4E
:100FF0000141C0F8801002F170016164D0F88010E6
:1010000021F0706141EA0361C0F8801002F1B00084
:10101000A06402F5C470E06402F51870206502F562
:101020001E70606502F55470002100BF42F8041B79
:1010300082420BD242F8041B824207D242F8041BC0
:10104000824203D242F8041B8242EFD300200121E6
:10105000A065206684F85C1070BD0000B0B59CB03F
:10106000044600201B90CDE91900CDE9170002A825
:101070005421FFF799F9206846F60001C4F20001F7
:10108000884239D046F20041C4F20001884240F063
:1010900081804FF4805002904FF00070109002A8B1
:1010A00000F018FC002818BFFFF7F2F940F22811F1
:1010B000C2F200010A6841F24C00C4F20200531C63
:1010C0000B6042B9C16841F00071C160C16801F0B4
:1010D0000071019101990168162441F0010101603C
:1010E0000068152500F00100019001984FF4C050F0
:1010F00017904FF0904033E04FF4805002904FF043
:101100000070109002A800F0E5FB002818BFFFF760
:10111000BFF940F22811C2F200010A6841F24C0006
:10112000C4F20200531C0B6042B9C16841F0007167
:10113000C160C16801F000710191019901685724F3
:1011400041F0020101600068562500F002000190A4
:1011500001984FF48250179040F20040C4F600000E
:10116000022118910021CDE9191109211B9117A91C
:1011700000F068F928460021002200F0CDFA284648
:1011800000F0BAFA20460021002200F0C5FA2046FD
:1011900000F0B2FA1CB0B0BD2DE9F047A0B040F2AB
:1011A000C407C2F2000739680446481C40F2B8512F
:1011B0003860C2F200012068096888421FD040F2FE
:1011C0005451C2F200010968884240F0F88014AA24
:1011D0001EAB20464021FFF7CBFC149820F0FF0106
:1011E000B1F5007F386240F0B98040F22C15C2F2B0
:1011F0000005696F002958D0884257D073E007F185
:101200003C0207F1340320464021FFF7B1FC796826
:10121000F86B42F21A7201319042796042D042F288
:101220001071884240F0CB80D7E90D02D7F81080CA
:10123000C82103BA10BAC7E90230C7E9058105F031
:1012400082FD9FED690B53EC102B05F01FFE9FED07
:10125000680B56EC105B2A46334605F017FE2A460B
:10126000334605F0F9FA05F0C5FA40F20001C2F282
:10127000000109683861012925D0002940F09F80CC
:1012800040F2940040F29041C2F20000C2F200012C
:10129000006891ED000A07F1080107F1100204F05F
:1012A0000BFC8CE0C820F86189E06867A86A411CE3
:1012B000322840F22C10A962C2F200001EA910D8F8
:1012C00004F09CFF0FE040F29400C2F200000068BE
:1012D00000EE108A07F1080107F1100204F0ECFBA0
:1012E0006DE004F059FF95F87000FA21796298B327
:1012F000B86901286BDB40F29041C2F20001D7EDE2
:10130000040A40F2000091ED000AC2F20000C0EDB4
:10131000010A04F019FF40F66000C2F20000416BC0
:10132000DFED350A87ED0A0A8847BDEEC01A11EED7
:10133000100ABDEEC00A4FF47A5601460246034633
:1013400087ED0B0A009605F035F9149800F410604B
:10135000B0F5106F33D107E005F07AF8149800F477
:101360001060B0F5106F2AD114AB0FCB0DF1200C2B
:101370008CE80F00DDE918010DF1200ECDE90C011C
:10138000DDE91A010DF13C0ACDE90E01DDE91C0190
:10139000CDE91001FA203863DDE91E7C12979EE842
:1013A0006F409AE800078DE860400DF10C0ECDF813
:1013B0004CC08EE80007CDE9067C05F04DF92046CB
:1013C00001210022FFF79AFA20B0BDE8F087E86A11
:1013D0000021002205F0EAF9149800F41060B0F53D
:1013E000106FECD1C0E700BF00000000000010BF8C
:1013F00000000000008076400000FA4570470000C1
:1014000090F85C1001290BD1022180F85C10016872
:101410008A6922F001028A6100210166084670474C
:10142000016E41F004010166012070477047000021
:1014300070470000704700007047000070470000D0
:10144000704700002DE9F04F84B00C680190002C2B
:1014500000F0E280019841F2004600F13842C4F603
:1014600000068E464FEAB2270621B04208BF05218A
:10147000052F4FF000054FF001074FF000064FF029
:10148000000838BF4FEAB2210091CDF808E00DE026
:10149000DEF8004008F1010834FA07F106F102060F
:1014A00007F1010705F1040500F0B680A7F1010A74
:1014B000012000FA0AF214EA0209E9D0DEF804C0B9
:1014C0000CF0030BABF10104012C17D80198744602
:1014D00081680323E468B3409943B44021438160A9
:1014E00041684FEA480E9143CCF3001202FA0AF227
:1014F0000446D843114361600CE000BF0321B140B2
:10150000019CC843BBF1030FB64603D1B6464FF06A
:10151000030B23E0E168029B01409A68BBF1020FD4
:1015200002FA0EF241EA0201E16017D16FF0030105
:1015300001EA5A01214405F01C040F22D1F820C011
:1015400002FA04FB1A692CEA0B0CA24042EA0C02D4
:10155000019C0A62D3F804C00CF0030B21680BFA5B
:101560000EF2014011432160DDF808E01CF4403F19
:101570008ED041F26000C4F20200016840F2004CDB
:1015800041F0010101600168C4F2010C01F00101A8
:10159000039103992AF003014FF6084A6144CFF6FC
:1015A000FF7A05F00C030F2051F80A2000FA03F42B
:1015B0000098A24300FA03F31A4341F80A20DCF82A
:1015C0000810DEF8042041EA090340F20C40D4027E
:1015D00058BF21EA0903CCF80830C4F201000168C1
:1015E000940241EA090358BF21EA09030360DCF8C9
:1015F0000410940341EA090358BF21EA0903CCF817
:101600000430DCF80010D20341EA090358BF21EA94
:101610000903CCF800303BE704B0BDE8F08F0000D0
:101620001823002A08BF2823C150704740F6A000A5
:10163000C2F200000068704740F2080040F6A001C6
:10164000C2F20000C2F2000140680A68104408605B
:101650007047000080B5032000F08AF80F2000F0EA
:1016600009F800281CBF012080BD00F02BF80020E5
:1016700080BD000070B540F20806C2F20006716835
:10168000E1B1044640F21000C2F200004FF47A7259
:101690000068B2FBF1F1B0FBF1F001F0A5FA0F2CFC
:1016A0004FF0010508D838B94FF0FF30214600222D
:1016B000002500F031F83460284670BD0125284629
:1016C00070BD000082B041F25800C4F2020081688F
:1016D00041F001018160816801F0010101910199EE
:1016E000016841F080510160006800F08050009076
:1016F000009802B000F0E4B8002848BF704700F03E
:101700001F01012202FA01F14EF200124009CEF24D
:10171000000242F82010704710B54EF60C5CCEF275
:10172000000CDCF80030C3F3022E8EF00704042C0A
:1017300028BF0424BEF103034FF0FF3E0EFA04F469
:1017400038BF0023A14399400EFA03F39A4300F0F7
:101750000F03043B1143634409010C3300F1604261
:10176000B0F1FF3FC8BF02F56443197010BD00001F
:101770004EF60C51CEF200010A684FF6FF031A40F4
:1017800060F30A2242F0806040F0FD70086070470C
:10179000002848D047F21401C4F2000151F8142C7B
:1017A000B0F5007F40F08480C86E02F4C06240F45F
:1017B0008070B2F5806FC86633D151F8140C0122E5
:1017C00062F34A2041F8140C40F21000C2F200000B
:1017D0000068322250434DF68362C4F21B32A0FBF4
:1017E0000202900C0A68431C18BF12F4806213D0E6
:1017F0000A68002818BF12F480620DD00A68012818
:1018000018BF12F4806207D00A68022804D012F4CC
:101810008062A0F10400E5D10868400544BF0320C0
:1018200070470020704747F21400C4F2000050F8DF
:10183000141CC26E01F4C06122F48072B1F5806F95
:10184000C266EED150F8141C012262F34A2140F81E
:10185000141C40F21001C2F2000109683222514307
:101860004DF68362C4F21B32A1FB0212910C026896
:101870004B1C18BF12F4806213D00268002918BFF5
:1018800012F480620DD00268012918BF12F4806240
:1018900007D00268022904D012F48062A1F1040189
:1018A000E5D10068400544BF032070470020704721
:1018B000022060F34A2241F8142C002070470000F7
:1018C00047F20800C4F20000016841F48041016061
:1018D000704700002DE9F04182B00446807841F263
:1018E00088060007C4F2020601D4002033E056F84F
:1018F000300CC0000ED456F8300C4FF0010840F008
:10190000805046F8300C56F8300C00F080500190B2
:10191000019801E04FF0000847F20007C4F2000709
:10192000386840F480703860FFF780FE054600BFDD
:101930003868C00500F10A81FFF778FE401B0228D5
:10194000F6D90320B8F1000F05D056F8301C21F06D
:10195000805146F8301C2168CA0716D18A071CD46A
:101960004A0722D40A0728D4CA062ED48A0634D4B9
:101970004A063AD40A0640D4CA0546D48A034CD44F
:101980008A0552D44A0558D466E03268636822F06A
:1019900003021A4332608A07E2D53268A36822F054
:1019A0000C021A4332604A07DCD53268E36822F041
:1019B00030021A4332600A07D6D53268236922F012
:1019C000C0021A433260CA06D0D53268636922F475
:1019D00040721A4332608A06CAD53268A36922F47B
:1019E00040621A4332604A06C4D53268E36922F481
:1019F00040521A4332600A06BED53268236A22F486
:101A000040421A433260CA05B8D53268636A22F48C
:101A100040321A4332608A03B2D57269A36A22F057
:101A200003021A4372618A05ACD53268E36A22F474
:101A300040221A4332604A050ED53268236B22F4E5
:101A400040121A43B3F5801F326005D156F87C2C42
:101A500042F4801246F87C2C0A050ED53268636B7E
:101A600022F440021A43B3F5800F326005D156F8D4
:101A70007C2C42F4801246F87C2CCA040ED53268C5
:101A8000A36B22F040721A43B3F1807F326005D11C
:101A900056F87C2C42F4801246F87C2C8A040ED531
:101AA0003268E36B22F040621A43B3F1006F326098
:101AB00005D156F87C2C42F4801246F87C2C4A045E
:101AC0000ED53268236C22F040621A43B3F1006FE6
:101AD000326005D156F87C2C42F4801246F87C2CFA
:101AE0000A040ED53268636C22F040521A43B3F1F7
:101AF000805F326005D156F87C2C42F4803246F883
:101B00007C2CCA030ED53268A36C22F040421A43E3
:101B1000B3F1804F326005D156F87C2C42F480320C
:101B200046F87C2C49030ED57169E26C21F4401112
:101B30001143B2F5001F716105D156F87C1C41F4C8
:101B4000801146F87C1C02B0BDE8F081B06810F44A
:101B5000407010D0216D88420BD0B068B16820F47D
:101B6000407041F48031B160B16821F48031B160DE
:101B7000B060C0070BD1B068216D20F440700843FD
:101B8000B0600020B8F1000F3FF4E5AEDDE6FFF7EE
:101B90004DFD054641F28837B0688007EBD4FFF76A
:101BA00045FD401BB842F7D9CBE600002DE9F047D0
:101BB000002874D042F2000AC4F2020A0446DAF89D
:101BC00000000D4600F00F0088420CD2DAF8000049
:101BD00020F00F002843CAF80000DAF8000000F0F7
:101BE0000F00A8425BD1216841F20808C807C4F27F
:101BF00002080DD14FF00009880700F1BB80B9F150
:101C0000800F40F0D080D8F8000020F0F000C8E04D
:101C10006068032837D158F8082C92013FD5D8F8CE
:101C20000420D8F8043042F2004702F00302C0F268
:101C3000F407C3F30313032A04BF47F64007C0F2B7
:101C40007D17D8F804200133B7FBF3F3C2F3062263
:101C5000D8F804705A43C7F34163022707EB4303E4
:101C6000B2FBF3F24BF20043C0F2C4439A425ED996
:101C7000D8F8002012F0F00F4FD0890757D5A1688F
:101C8000002954D149E058F8081C022805D18903DD
:101C90005CBF0120BDE8F08704E0490502D40120C3
:101CA000BDE8F087D8F8001001F00C0104293ED0FF
:101CB000D8F8001001F00C01082938D0D8F800102D
:101CC00001F00C010C2932D1D8F80410D8F8042006
:101CD00042F2004301F00301C0F2F403C2F3031225
:101CE000032904BF47F64003C0F27D13D8F804105F
:101CF0000132B3FBF2F2C1F30621D8F804305143AC
:101D0000C3F34162022303EB4202B1FBF2F14BF257
:101D10000042C0F2C442914209D9D8F8001008220A
:101D200062F307114FF08009C8F8001001E04FF08E
:101D30000009D8F8001021F003010843C8F800009A
:101D4000FFF774FC064641F2883700BFD8F8000060
:101D5000616800F00C00B0EB810F07D0FFF766FC64
:101D6000801BB842F2D90320BDE8F08721688807BC
:101D70007FF545AF480705D5D8F8000040F4E0608E
:101D8000C8F80000080706D5D8F80000072262F35B
:101D90000D20C8F80000D8F80000A26820F0F0007C
:101DA0001043C8F80000DAF8000000F00F00A84265
:101DB0001BD9DAF8000020F00F002843CAF8000011
:101DC000FFF734FC064641F2883700BFDAF800001E
:101DD00000F00F00A84207D0FFF728FC801BB84294
:101DE000F4D90320BDE8F0872168480707D5D8F863
:101DF0000000E26820F4E0601043C8F80000080723
:101E000008D5D8F80000216920F4605040EAC100EC
:101E1000C8F80000D8F8000042F20041C0F2F40116
:101E200000F00C00042808462DD0D8F8000000F07F
:101E30000C00082847F64000C0F27D1023D0D8F8E7
:101E4000002002F00C020C2A1CD1D8F80420D8F88B
:101E5000043002F00302C3F30313032A08BF014650
:101E6000D8F804000133B1FBF3F1C0F30620D8F831
:101E700004204843C2F34161022202EB4101B0FB5E
:101E8000F1F000E00020D8F8001047F2B632C1F3BC
:101E90000311C0F60002515C40F2100201F01F0174
:101EA00020FA01F140F20800C2F200000068C2F21C
:101EB00000021160BDE8F047FFF7DCBB40F2100004
:101EC00041F20801C2F20000C4F202010068096890
:101ED00047F2C632C1F30221C0F60002515C01F0A4
:101EE0001F01C8407047000040F2100041F2080195
:101EF000C2F20000C4F202010068096847F2C6326B
:101F0000C1F3C221C0F60002515C01F01F01C840BC
:101F10007047000041F20C01C4F2020151F8040CB8
:101F200042F20042C0F2F40200F00C000428104615
:101F300008BF704751F8040C00F00C00082847F661
:101F40004000C0F27D1021D051F8043C03F00C0396
:101F50000C2B1CBF00207047D1F800C00B680CF0A0
:101F6000030CC3F30313BCF1030F08BF0246086858
:101F70000133B2FBF3F2C0F3062009685043C1F30A
:101F80004161022202EB4101B0FBF1F07047000019
:101F90002DE9F04182B0002800F0F9800446007875
:101FA00041F20006C007C4F2020655D1207880072E
:101FB00000F180802078000700F1A280207840079F
:101FC00000F1C0802078800600F1E580E569002DF1
:101FD00000F02482B06800F00C000C2840F05A8118
:101FE000012D00F0D480F068216A00F003028A42DB
:101FF00040F0CD80626A6FF00F0300F0F00103EB58
:102000000212914240F0C380A16A00F4FE42B2EB9A
:10201000012F40F0BC80E16A00F07842B2EBC16F62
:1020200040F0B580226B0023CFF6E07303EA025242
:1020300000F4C001A2F50012914240F0A880616B4B
:102040004FF07E4202EA016100F0C06001F17E4182
:10205000884240F09C80E1E1B06800F00C01F0683B
:10206000082966D0032281F00C0122EA000008440E
:10207000B0FA80F040095CD16568B5F5803F07D0C3
:102080003068B5F5A02F40F02F8140F480203060FB
:10209000306840F480303060FFF7C8FA054600BF72
:1020A000306880033FF582AFFFF7C0FA401B642819
:1020B000F6D9D9E0B068F16800F00C00042850D0DF
:1020C00001F0030180F00C0081F002010844B0FA35
:1020D00080F0400945D1E1683068002900F0C880EF
:1020E00040F480703060FFF7A1FA05463068400583
:1020F00000F1F280FFF79AFA401B0228F6D9B3E00C
:102100006169D6F89400002900F09D8040F001003C
:10211000C6F89400FFF78AFA054600BFD6F8940087
:1021200080073FF54BAFFFF781FA401B0228F5D936
:102130009AE0306880037FF539AF606800287FF44B
:1021400035AF24E0B06DC00041D4B06D4FF0010850
:1021500040F08050B065B06D00F080500190019863
:1021600037E03068400501D5E06880B170682169CA
:1021700020F0FE4040EA0160706040F20800C2F2C8
:1021800000000068FFF776FA00283FF413AF012043
:1021900002B0BDE8F081A169D6F89800002900F0EE
:1021A000BD8040F00100C6F89800FFF73FFA0546F1
:1021B000D6F8980080073FF509AFFFF737FA401BC4
:1021C00002284FF00300F3D902B0BDE8F0814FF0D0
:1021D000000847F20007C4F200073868C00510D4B1
:1021E000386840F480703860FFF720FA054600BF79
:1021F0003868C00505D4FFF719FA401B0228F7D943
:1022000032E0A568012D08D0D6F89000052D40F0E9
:102210009A8040F00400C6F89000D6F8900040F094
:102220000100C6F89000FFF701FA054641F2883731
:10223000D6F89000800700F1A480FFF7F7F9401B63
:10224000B842F5D910E020F00100C6F89400FFF77D
:10225000EDF90546D6F8940080077FF5AFAEFFF79D
:10226000E5F9401B0228F5D9032002B0BDE8F08152
:1022700020F480703060FFF7D9F9054630684005DA
:102280007FF598AEFFF7D2F9401B02284FF003000C
:10229000F4D999E7306820F080703060FFF7C6F914
:1022A000022D05460CD100BF3068800172D5FFF7C2
:1022B000BDF9401B02284FF00300F5D984E700BFA9
:1022C0003068800140F1A380FFF7B0F9401B02287D
:1022D0004FF00300F4D977E77068216920F0FE40E1
:1022E00040EA0160706065E620F48030306030685C
:1022F00020F480203060FFF799F9002D05467FF427
:10230000CFAE07E0FFF792F9401B64284FF00300BF
:102310003FF65AAF30688003F4D447E620F001005E
:10232000C6F89800FFF782F9054600BFD6F8980076
:1023300080077FF54BAEFFF779F9401B02284FF07D
:102340000300F3D940E720F00100C6F89000D6F86A
:10235000900020F00400C6F89000FFF767F9002D08
:1023600005467FF463AF41F28837D6F890008007C6
:1023700007D5FFF75BF9401BB8424FF00300F4D9D3
:1023800022E7B8F1000F3FF41DAEB06D20F0805091
:10239000B06517E6F06848F20C01C0F29F1104F135
:1023A000200700EA010C8ECF6FF00F00D4E90C5427
:1023B00000EB02100022CFF6E07241EA0C0102EAC3
:1023C00005520843A2F500124FF07E4540EA032073
:1023D00005EA0465104305F17E4540EAC7602843DD
:1023E000F060306840F080703060F06840F08070DD
:1023F000F060FFF71BF90446306880010ED4FFF748
:1024000015F9001B02284FF00300F5D9DCE6F0684F
:102410004FF6FC71CFF6EE610840F060002002B08C
:10242000BDE8F08170470000B0B582B00446006896
:10243000416882684B0609D502F04103012B05D1A2
:10244000E16C204602B0BDE8B04008470B0608D555
:1024500012F0020305D0216D204602B0BDE8B04065
:1024600008478B0610D512F4B0730DD012F040035C
:1024700017D094F85D30032B08D100210191C16879
:10248000019180680190019802B0B0BD236E43F0C5
:102490000403236600230193C368019383680193B7
:1024A000019B12F0200302F4807203D18AB9226EDC
:1024B000DAB9E9E7236E43F00103236600230193B1
:1024C00083680193036823F040030360019B002AA3
:1024D000EDD0226E42F0080222660022019282684C
:1024E0000192019A226E002ACED04268890722F01A
:1024F000E00242604FF0010284F85D201FD0416885
:1025000043F6897521F003014160A06DC0F6000516
:1025100038B18563FEF746F818B1206E40F04000F0
:102520002066606D0028AFD08563FEF73BF8002879
:10253000AAD0206E40F04000206602B0B0BD204618
:1025400002B0BDE8B040FFF76DBF0000002804BF37
:1025500001207047B0B50446406A20B100202061D8
:1025600004F1140005E06068B0F5827F03D004F147
:102570001C00002101600025A56294F85D0020B9CF
:10258000204684F85C5000F053F8022084F85D0087
:102590002068D4F80CE00268BEF5E06F22F040023B
:1025A00002604EF4006298BF0125B2F5706F1CBF47
:1025B0000023A3624FEA053CD4E90135D4E90421A4
:1025C00003F4827305F404452B4402F002021A441A
:1025D000A36901F00101E569114403F4007211449B
:1025E00005F03802256A114405F08002A56A1144FD
:1025F00005F40052114301600421626A0EF4706513
:1026000001EA1341636B45EA0C0502F0100229430D
:1026100003F00803114319434160C16921F40061CB
:10262000C16100200121206684F85D10B0BD00006A
:1026300070B586B00026CDE90466CDE90266044691
:10264000006843F60001C4F20001884201962BD0D5
:1026500043F20001C4F2010188426ED141F24C0004
:10266000C4F20200416941F480514161416901F4C1
:10267000805100910099016841F0010101600068FA
:1026800001A900F0010000900098E02001900220D4
:1026900002900020CDE90300052005904FF0904006
:1026A000FEF7D0FE232440E041F24C00C4F20200C9
:1026B000C16841F48041C160C16801F4804100916A
:1026C0000099016841F002010160006801A900F071
:1026D0000200009000984FF4204001900220CDE9C4
:1026E00002060520059040F20040C4F60000049662
:1026F000FEF7A8FE40F294450820C2F20005C4F29D
:1027000002000D211022802385E847002846C5E9F4
:102710000436C5E906662E62FDF7DAFF002818BF09
:10272000FDF7B6FE6565AC62242420460021002238
:10273000FEF7F2FF2046FEF7DFFF06B070BD000097
:102740002DE9F04381B01E4615460F460446FEF7BC
:102750006DFF94F85D108146012908D1002F4FF0DC
:10276000010018BF002D0ED101B0BDE8F0836068F4
:10277000B0F5827F0DD104294FF00200F4D1A16899
:102780000029EBD0F0E7002EEED094F85C00012891
:1027900003D1022001B0BDE8F083012084F85C0081
:1027A00094F85D0004281CBF052084F85D0000201B
:1027B00020662564A4F84660A4F84460A763E68711
:1027C000A687C4E913002068E1684268B1F5E06FAC
:1027D00022F480552B4698BF42F48053012E88BFC7
:1027E0002B4643600268520603D4026842F040025E
:1027F00002606268731EB2FA82F2B3FA83F3DDF804
:10280000208052095B09B1F5E06F43EA02016DD9FE
:1028100031B137F8021BC160A763E08F0138E08750
:10282000012518F1010036D102E000BFFEF7FEFEDF
:10283000E08F20B9B4F84600002800F0138120682A
:10284000816889070CD5E18F012D09D141B1A16BB8
:10285000002531F8022BC260A163E18F0139E187C5
:102860008168C907E2D0B4F846100029DED0C068FC
:10287000216C012521F8020B2164B4F846000138CF
:10288000A4F84600D2E700BFFEF7D0FEA0EB090097
:10289000404580F00A81E08F20B9B4F84600002856
:1028A00000F0E0802068816889070CD5E18F012D58
:1028B00009D141B1A16B002531F8022BC260A1639F
:1028C000E18F0139E1878168C907DDD0B4F846108E
:1028D0000029D9D0C068216C012521F8020B2164A0
:1028E000B4F846000138A4F84600CDE799B1E18F6D
:1028F000022905D337F8022B4FF6FE71C26006E0BD
:1029000039780173A06B471C6FF00100411CA7636D
:10291000E08F0844E087012518F1010062D10DE045
:10292000007B216C0870206C01302064B4F84600F4
:102930000138A4F846000125FEF778FEE08F20B9A3
:10294000B4F84600002800F08D802068816889076F
:1029500018D5E18F012D15D1A1B1E28FA16B022A0B
:1029600006D331F8022BC260A163E18F023907E080
:1029700009780173A16B20680131A163E18F0139EE
:102980000025E1878168C907D6D0B4F84610002930
:10299000D2D0B4F846100229C2D3C168226C22F802
:1029A000021B2264B4F846100239A4F84610B4F8A9
:1029B00046100129BFD8416841F480514160BAE70F
:1029C000007B216C0870206C01302064B4F8460054
:1029D0000138A4F846000125FEF728FEA0EB090007
:1029E000404562D2E08F10B9B4F84600D0B32068F9
:1029F0008168890718D5E18F012D15D1A1B1E28F2A
:102A0000A16B012A06D931F8022BC260A163E18FC4
:102A1000023907E009780173A16B20680131A163D5
:102A2000E18F01390025E1878168C907D4D0B4F866
:102A300046100029D0D0B4F846100129C0D9C16889
:102A4000226C22F8021B2264B4F846100239A4F862
:102A50004610B4F846100129BDD8416841F48051B0
:102A60004160B8E720464FF4C05142464B4601F062
:102A7000F7FA68B9204641464A4601F093FB38B957
:102A800020464FF4C06142464B4601F0E9FAB0B12E
:102A9000206E40F02000206620202066002084F870
:102AA0005C00012001B0BDE8F083012084F85D00E6
:102AB000002084F85C00032001B0BDE8F083012011
:102AC00084F85D00002084F85C00206E002818BFA8
:102AD000012001B0BDE8F08370B5044690F85D00B8
:102AE00001280AD100294FF0010018BF002A00D1A7
:102AF00070BD94F85C00012801D1022070BD012056
:102B000084F85C000320002384F85D002366A16341
:102B1000A287E2872364C4E91333A4F84430A4F8FD
:102B20004630A0682268B0F5004F07D1106820F049
:102B300040001060106840F480401060606D43F603
:102B4000B97E43F6C17543F69976C0F6000EC0F61D
:102B50000005C0F60006D4F80CC0C0E90B5EC0E961
:102B60000D635368BCF5E06F23F48043536015D8C0
:102B70008369B3F5806F11D1E68F5368F60705D1ED
:102B800023F480435360E38F5B0806E043F4804303
:102B90005360E38F012606EB5303E387E38F0C3288
:102BA000FDF726FE40B1206E40F0100020660020A8
:102BB00084F85C00012070BD21680868400603D4D9
:102BC000086840F040000860002084F85C004A6813
:102BD00042F020024A604A6842F002024A6070BD38
:102BE0007047000070470000411E0020B0EB116FDD
:102BF0001CBF012070474EF21002CEF2000251605D
:102C00004EF62351CEF20001F0230B7007219060A5
:102C10001160704770470000704700007047000067
:102C200070470000704700007047000070B590F8D2
:102C30003C20012A4FF0020264D0012380F83C308E
:102C400080F83D20026842F600435468D2F808C07C
:102C5000C4F2010345F2000E9A42C4F2010E18BFFD
:102C600072452AD14D6824F470042C434FF68F75B9
:102C7000CFF6FF550E682C4042F6FF35C4F2010531
:102C80003443AA4254600DDC40F2FF73C4F20003E7
:102C90009A4219DCB2F1804F29D040F20043C4F2CD
:102CA000000322E043F6FF74C4F20104A24216DCE2
:102CB0009A421CD043F2004315E043F20045C4F2AF
:102CC0000105AA42CED0D1E740F60003C4F20003CA
:102CD0009A420CD040F60043C4F2000305E072456E
:102CE00005D044F20003C4F201039A4204D189687A
:102CF0002CF08003194391600121002280F83D10DF
:102D000080F83C20104670BD70470000002804BFCA
:102D10000120704710B5044690F83D0028B9002006
:102D200084F83C00204600F023F8022084F83D009F
:102D30002068211D01F07AFB012084F8480084F806
:102D40003E0084F83F0084F8400084F8410084F895
:102D5000420084F8430084F8440084F8450084F875
:102D6000460084F8470084F83D00002010BD0000B4
:102D700010B584B0006844F60001C4F20101884235
:102D80001CD041F20041C4F20001884225D041F23A
:102D90000001C4F2000188421CBF04B010BD41F222
:102DA0005800C4F202000168362441F010010160AD
:102DB000006800F01000039003981CE041F25800F6
:102DC000C4F2020081681A2441F480218160806885
:102DD00000F48020019001980DE041F25800C4F207
:102DE00002000168372441F020010160006800F012
:102DF000200002900298204600210022FEF78CFC61
:102E0000204604B0BDE81040FEF776BC90F83D10B7
:102E100001291CBF01207047022180F83D10016884
:102E200042F6FF32C868C4F20102914240F001004C
:102E3000C8600DDC40F2FF70C4F20000814216DC75
:102E4000B1F1804F2AD040F20040C4F2000023E0EC
:102E500043F6FF70C4F20100814213DC42F60040E9
:102E6000C4F20100814219D043F2004012E040F662
:102E70000000C4F20000814210D040F60040C4F2CD
:102E8000000009E045F20000C4F20100814205D0D3
:102E900044F20000C4F20100814212D18868072286
:102EA000C0F201020240062A4FF000000ED0B2F537
:102EB000803F08BF7047086840F0010008600020AC
:102EC0007047086840F0010008600020704700006B
:102ED00070470000F0B581B004460068C768066915
:102EE00006EA0705A90739D4680751D428076BD427
:102EF000E80600F18680E80740F0A18017F080071F
:102F000018BF16F4025040F0A880002F18BF16F426
:102F1000807040F0AF80680600F1B680A80600F12E
:102F2000BD80E80200F1C480A80200F1CB806802F5
:102F300006D520686FF4800101612046FFF774FE1A
:102F400028025CBF01B0F0BD21686FF4000220468A
:102F50000A6101B0BDE8F040FFF7D6BE6FF0020194
:102F60000161012121778069800707D02046FFF7A2
:102F7000AFFF002020776807B8D509E0204600F0B1
:102F8000ADF8204600F0ACF8002020776807ADD5FA
:102F900020686FF00401016102212177806910F43B
:102FA000407F07D02046FFF793FF002020772807B7
:102FB0009ED509E0204600F091F8204600F090F8F8
:102FC00000202077280793D520686FF00801016161
:102FD00004212177C069800708D02046FFF778FFD9
:102FE00000202077E8067FF586AF0AE0204600F053
:102FF00075F8204600F074F800202077E8067FF589
:103000007AAF20686FF01001016108212177C06953
:1030100010F4407F08D02046FFF75AFF00202077A9
:10302000E8073FF46BAF0AE0204600F057F820466F
:1030300000F056F800202077E8073FF45FAF2068E3
:103040006FF001010161204600F04CF817F0800795
:1030500018BF16F402503FF458AF20686FF40251C5
:1030600001612046FFF7D8FD002F18BF16F48070CD
:103070003FF451AF20686FF4807101612046FFF783
:10308000C9FD68067FF54AAF20686FF04001016115
:10309000204600F029F8A8067FF543AF20686FF0BE
:1030A000200101612046FFF7B9FDE8027FF53CAF42
:1030B00020686FF4801101612046FFF7B3FDA8027C
:1030C0007FF535AF20686FF4001101612046FFF7EE
:1030D000A7FD68027FF534AF2BE7000070470000C2
:1030E00070470000704700007047000090F884109F
:1030F000012904BF022070472421C0F8881002680B
:103100001168136823F00103136021F000530021BC
:10311000416613602022C0F8882080F88410084699
:10312000704700007047000070470000B0B590F88D
:103130008420012A04BF0220B0BD0123242280F88C
:103140008430C0F888200268D0F864E0D2F800C06B
:103150001468BEF1000F24F001041460946824F098
:10316000606441EA0401916019D0916847F2084E09
:10317000C1F342619368C0F6000E5B0F47F2104541
:103180001EF80340C0F60005EB5CE400B4FBF3F36B
:103190001EF80140695CE500B5FBF1F100E001219A
:1031A000A0F868102021A0F86A30C2F800C0C0F86A
:1031B0008810002180F884100846B0BDB0B590F8A2
:1031C0008420012A04BF0220B0BD0123242280F8FC
:1031D0008430C0F888200268D0F864E0D2F800C0DB
:1031E0001468BEF1000F24F001041460946824F008
:1031F000604441EA0401916019D0916847F2084E99
:10320000C1F342619368C0F6000E5B0F47F21045B0
:103210001EF80340C0F60005EB5CE400B4FBF3F3DA
:103220001EF80140695CE500B5FBF1F100E0012109
:10323000A0F868102021A0F86A30C2F800C0C0F8D9
:103240008810002180F884100846B0BD7047000047
:10325000704700007047000070B502680446D169ED
:1032600040F62F001668D2F808E0084020280BD15D
:1032700006F020000EF08053C01822D0616FC9B351
:103280002046BDE87040084740F60F00014218D0C4
:103290000120C1F200000EEA000C40F22010C0F242
:1032A0000040304010EB0C000BD0C80718BF16F4DC
:1032B000807040F00C8188070EF0010300F113814B
:1032C0001AE1E06E06EA0103DD0614D5012812D1E9
:1032D00010201062906840061CD4B4F85C00B4F86A
:1032E0005E10B4F85E30002B1CBF401A5FEA00414C
:1032F00040F0018270BDC80240F1CD801EF4800014
:1033000000F0C9804FF4801120461162BDE8704082
:10331000FFF79EBFD4F8800003685868B4F85CC01B
:1033200081B2002900F0D781614580F0D481A4F8F2
:103330005E001868800600F1A28052E8000F216844
:1033400020F4807041E80002F2B1206850E8000FDC
:10335000216820F4807041E80002AAB1206850E89A
:10336000000F216820F4807041E8000262B12068FB
:1033700050E8000F216820F4807041E800021AB183
:10338000206850E8000FDAE7206850E8020F216853
:1033900020F0010041E80202BAB3206850E8020FB1
:1033A000216820F0010041E8020272B3206850E871
:1033B000020F216820F0010041E802022AB32068D0
:1033C00050E8020F216820F0010041E80202002AC3
:1033D000DAD11AE0206850E8020F216820F040009E
:1033E00041E80202DAB1206850E8020F216820F0BB
:1033F000400041E8020292B1206850E8020F2168C3
:1034000020F0400041E802024AB1206850E8020F73
:10341000216820F0400041E80202002ADAD1202091
:10342000C4F88C000020E066206850E8000F216896
:1034300020F0100041E80002DAB1206850E8000FE7
:10344000216820F0100041E8000292B1206850E8A5
:10345000000F216820F0100041E800024AB1206806
:1034600050E8000F216820F0100041E80002002A17
:10347000DAD1D4F88000FDF75DF8B4F85CC0022022
:103480002067B4F85E00ACEB000081B22046BDE8D6
:103490007040FFF747BE08060AD506F080000EF41C
:1034A0000005401904D0A16F00297FF4E9AE21E79F
:1034B000580600F14A81080240F1F78116F0804079
:1034C00000F0F3812046BDE87040FFF7BFBE012049
:1034D0001062D4F8900040F00100C4F89000880712
:1034E0000EF0010308D53BB102201062D4F8900021
:1034F00040F00400C4F89000480708D53BB1042010
:103500001062D4F8900040F00200C4F89000080760
:103510000CD506F0200050EA0C0007D008201062FD
:10352000D4F8900040F00800C4F8900008050BD5CE
:1035300016F0806008D04FF400601062D4F890005C
:1035400040F02000C4F89000D4F8900000283FF428
:10355000D1AE11F020001EBF06F020000EF0805109
:1035600010EB010040F09981D4F89000916800F0D0
:10357000280001F04001401800F0B68052E8000F2A
:10358000216820F4907041E80002F2B1206850E810
:10359000000F216820F4907041E80002AAB1206871
:1035A00050E8000F216820F4907041E8000262B1F9
:1035B000206850E8000F216820F4907041E8000274
:1035C0001AB1206850E8000FDAE74FF6FE70CEF629
:1035D000FF7000BF216851E8021F2268014042E8E5
:1035E0000213C3B1216851E8021F2268014042E87A
:1035F000021383B1216851E8021F2268014042E8AA
:10360000021343B1216851E8021F2268014042E8D9
:103610000213002BDED1E06E012824D1206850E88F
:10362000000F216820F0100041E80002DAB12068A4
:1036300050E8000F216820F0100041E8000292B12C
:10364000206850E8000F216820F0100041E80002D7
:103650004AB1206850E8000F216820F0100041E8CE
:103660000002002ADAD120200021C4F88C00E16693
:10367000206861678168490640F10A8150E8020FBD
:10368000216820F0400041E80202002A00F0ED80AD
:10369000206850E8020F216820F0400041E8020253
:1036A000002A00F0E280206850E8020F216820F034
:1036B000400041E80202002A00F0D780206850E86C
:1036C000020F216820F0400041E80202002A00F0C9
:1036D000CC802068D2E78C457FF40CAE1868800659
:1036E0007FF508AE0222B0E02046FFF7B3FD0020D0
:1036F000C4F8900070BD52E8001F00BF226821F49A
:10370000907142E80013002B4BD0216851E8001F54
:10371000226821F4907142E80013002B41D0216807
:1037200051E8001F226821F4907142E80013C3B3EE
:10373000216851E8001F226821F4907142E80013CB
:103740007BB3216851E8001FD8E752E8000F00BFA3
:10375000216820F0400041E80002002A7BD0206868
:1037600050E8000F216820F0400041E80002002AE4
:1037700071D0206850E8000F216820F0400041E837
:103780000002002A67D0206850E8000F216820F06E
:10379000400041E80002002A5DD0206850E8000F98
:1037A000D6E74FF6FE71CEF6FF7100BF226852E8F1
:1037B000022F23680A4043E80226C6B1226852E875
:1037C000022F23680A4043E8022686B1226852E8A5
:1037D000022F23680A4043E8022646B1226852E8D5
:1037E000022F23680A4043E80226002EDED1202162
:1037F000C4F88C100021E166616700BF216851E8C0
:10380000001F226821F0100142E80013DBB121689B
:1038100051E8001F226821F0100142E8001393B123
:10382000216851E8001F226821F0100142E80013CE
:103830004BB1216851E8001F226821F0100142E8D5
:103840000013002BDAD1022281B220462267BDE8A4
:103850007040FFF767BC20200021C4F88800204694
:10386000A167BDE8704000F0CBB8D4F8800078B113
:1038700044F2C971C0F600018163FCF793FE002891
:103880003FF438ADD4F88000816BBDE87040084744
:103890002046BDE87040FFF7DDBC616F00293FF4B2
:1038A00063AE2046884722685EE6C8017FF522ADF8
:1038B000B6F1FF3FC8BF70BD2046BDE87040FFF7BE
:1038C00033BC000010B5D8B10446D0F8880028B940
:1038D000002084F88400204600F026F82420C4F854
:1038E00088002068A16A026822F00102026011B11A
:1038F000204600F03FFE204600F06CFF012801D179
:10390000012010BD2168486820F490404860886814
:1039100020F02A008860086840F0010220460A6012
:10392000BDE8104000F09ABE70B59CB0044600257A
:1039300002A854211B95CDE91955CDE91755FCF77F
:1039400033FD206844F60001C4F20001884201D032
:103950001CB070BD0420029002A80595FDF7BAFFC7
:10396000002818BFFCF794FD41F24C00C4F202009D
:10397000C168002641F48021C160C16801F4802142
:1039800001910199016841F002010160006817A9E5
:1039900000F00200019001984FF44060179002205F
:1039A00018900720CDE919661B9040F20040C4F63C
:1039B0000000FDF747FD40F2F4451C20C2F200056F
:1039C000C4F202001D211022802385E8470028460A
:1039D000C5E90436C5E906662E62FCF779FE0028C3
:1039E00018BFFCF755FD272000210022E567AC62D7
:1039F000FDF792FE2720FDF77FFE1CB070BD000092
:103A000070470000FEE7000080B582B041F2480038
:103A1000C4F202000168002241F004010160016863
:103A200001F0040101910199016841F00101016077
:103A30000068002100F00100009000980B20FDF7C5
:103A40006BFE0B20FDF758FE0C2000210022FDF735
:103A500063FE0C2002B0BDE88040FDF74DBE0000C3
:103A600080B540F2545046F20041C2F20000C4F268
:103A700000010022C0E900121221012300F1140705
:103A8000C0E90222C0F80F204FF0050C4FF0030EE2
:103A900087E80A50C0E90933C0E90B33C0E90D22B9
:103AA000C263FDF7D3F9002808BF80BDBDE88040A0
:103AB000FCF7EEBCB0B540F2B85046F60001C2F2D9
:103AC0000000C4F200010022C0E90012122101230B
:103AD0000F24042500F11407C0E90222C0F80F20CA
:103AE0004FF0020C4FF0060E87E80A50C0E9093388
:103AF000C0E90B45C0E90D25C263FDF7A7F9002811
:103B000008BFB0BDBDE8B040FCF7C2BC70B586B020
:103B1000002541F24C000595C4F202000168002224
:103B200041F020010160016801F02001009100993D
:103B3000016841F001010160016801F0010100919B
:103B40000099016841F00201016000681F2100F046
:103B50000200009000984FF09040FDF761FD0F20AB
:103B600001AC019001264FF090402146CDE902665C
:103B70000495FDF767FC1020CDE901064FF0904059
:103B80002146CDE90355FDF75DFC06B070BD000090
:103B9000B0B540F21C6043F20001C2F20000C4F272
:103BA00001014FF4827200234FF4706C4FF0010E4C
:103BB0004FF40074302580E80E100721C0E9043E60
:103BC000C0E90645C0E90833C0E90A31C0E90C3351
:103BD000FEF7BCFC002808BFB0BDBDE8B040FCF754
:103BE00057BC000010B540F2806043F60001C2F2FD
:103BF0000000C4F200014FF4827200234FF4E06C25
:103C00004FF4007E182480E80E1007210822C0E936
:103C10000433C0E906E4C0E90833C0E90A31C0E969
:103C20000C32FEF793FC002808BF10BDBDE8104021
:103C3000FCF72EBC80B540F2E46044F60001C2F20D
:103C40000000C4F2010100234FF0800EA12241F2D6
:103C5000873C80E80E10C0E90433C0F818E0FFF795
:103C600055F8002808BF80BDBDE88040FCF710BCB7
:103C700010B584B040F2307041F20001C2F2000091
:103C8000C4F200010024A12240F69F7380E81600D0
:103C900080210394CDE90144C3608161FFF736F8C8
:103CA000002818BFFCF7F4FB40F23070C2F20000AD
:103CB00001A901940394FEF7B9FF002818BFFCF78F
:103CC000E7FB04B010BD000010B584B040F27C707A
:103CD00041F200410024C2F20000C4F2000140F6AB
:103CE0009F730394CDE90144A12280E81600C360CC
:103CF0008461FFF70BF8002818BFFCF7C9FB40F2FE
:103D00007C70C2F2000001A901940394FEF78EFFBB
:103D1000002818BFFCF7BCFB04B010BD80B540F212
:103D2000C87044F60001C2F20000C4F20001002392
:103D30004FF00C0C4FF4613280E80E00C0E9033301
:103D4000C0E905C3C0E90733C0E90933FFF7BAFD8D
:103D5000002818BFFCF79CFB40F2C870C2F20000BC
:103D60000021FFF72BFA002818BFFCF791FB40F267
:103D7000C870C2F200000021FFF7D8F9002818BF70
:103D8000FCF786FB40F2C870C2F20000FFF7AEF904
:103D9000002808BF80BDBDE88040FCF779BB00006B
:103DA000FEE70000FEE7000070470000F0B54FF0AE
:103DB0001E0C41F285071E28C8BF84465FFA8CFEA0
:103DC000C0F64207AEFB0756AEEB060406EB540600
:103DD0003609A6EB461656FA8CF6A6EB0C063044CE
:103DE0001E2546B2002EC8BF00F11E05281AC6B215
:103DF000A6FB0774371B04EB57073E097601A6EBB9
:103E00001717381A2844170640B26FF0070740F218
:103E1000A41558BF6FF03F0700EB4006C2F2000543
:103E200005F8367057066FF0070705EBC60058BF58
:103E30006FF03F07477097066FF0070758BF6FF0A6
:103E40003F078770D7066FF0070758BF6FF03F072F
:103E5000C77017076FF0070758BF6FF03F0707716C
:103E600057076FF0070758BF6FF03F074771970775
:103E70006FF0070758BF6FF03F07D2076FF00702D8
:103E8000877108BF6FF03F02C2710A066FF0070228
:103E900058BF6FF03F0202724A066FF0070258BF28
:103EA0006FF03F0242728A066FF0070258BF6FF050
:103EB0003F028272CA066FF0070258BF6FF03F02DE
:103EC000C2720A076FF0070258BF6FF03F02027319
:103ED0004A076FF0070258BF6FF03F0242738A072C
:103EE0006FF0070258BF6FF03F02C9076FF007017C
:103EF000827308BF6FF03F01C17319066FF00701AD
:103F000058BF6FF03F01017459066FF0070158BFA9
:103F10006FF03F01417499066FF0070158BF6FF0D1
:103F20003F018174D9066FF0070158BF6FF03F0160
:103F3000C17419076FF0070158BF6FF03F01017599
:103F400059076FF0070158BF6FF03F01417599079E
:103F50006FF007016FF0070C58BF6FF03F018175DC
:103F6000D90708BF6FF03F0C80F817C0F0BD000004
:103F700040F21C60C2F20000FEF756BA40F28060C8
:103F8000C2F20000FEF750BA806A0021A0F8461085
:103F9000C187FEF747BA0000806A01684A6822F0CC
:103FA00003024A60016E41F010010166012180F8B0
:103FB0005D10FEF737BA0000806AFEF713BE0000FE
:103FC000B0B582B0846A0546FDF730FB2968096800
:103FD00089063ED405462068642241682B4621F0BC
:103FE00020014160416821F00201416020464FF408
:103FF000C05100F035F868B9204664212A4600F027
:10400000D1F838B920464FF4C06164222B4600F045
:1040100027F838B1206E40F020002066206E40F076
:1040200020002066A06838B9002001902068C1688F
:1040300001918068019001980020E087012084F8B8
:104040005D00206E28B1204602B0BDE8B040FEF70A
:10405000E9B9204602B0BDE8B040FEF7C1BD00009E
:104060002DE9F04782B000271D4690460E46814656
:104070008DF80370FDF7DAFA281A00EB0804FDF753
:10408000D5FA40F21001C2F200010968232251431F
:10409000090DD9F8005061430191A968314277D0E8
:1040A0008246B6F5C06F1FD108F10106284603E02D
:1040B000816811F4C06F6FD0297B002E8DF803103A
:1040C0009DF80310F4D0FDF7B1FAA0EB0A00A0426E
:1040D00023D2019901980029A0F101000190D9F89B
:1040E000000008BF0C46E3E718F1010042D000BF12
:1040F000FDF79CFAA0EB0A00A0420ED201980199AC
:104100000028A1F101010191D9F80010896808BFC8
:1041100004463142ECD100273AE0D9E90001426877
:10412000B1F5827F22F0E00242600BD1D9F808108D
:10413000B1F5004F02D0B1F5806F03D1016821F0D5
:1041400040010160D9F82810B1F5005F07D101687E
:1041500021F400510160016841F400510160012027
:1041600089F85D00002089F85C000327384602B01A
:10417000BDE8F087002700BFA86830420CD0A868CF
:10418000304209D0A868304206D0A8683042F3D146
:10419000384602B0BDE8F0870027384602B0BDE8D7
:1041A000F0870000F0B581B015460E460446FDF7D5
:1041B0003DFA281A8719FDF739FA40F21001C2F2C8
:1041C00000010968C1F3CB317943009121688A6805
:1041D000120622D50546701C15D000BFFDF726FA41
:1041E000401BB8421CD2009800990028A1F101019F
:1041F00000912168896808BF07460806EED40CE0E4
:104200008868000609D58868000606D58868000613
:1042100044BF88685FEA0060F2D4002001B0F0BDBE
:10422000D4E900014268B1F5827F22F0E0024260E9
:104230000AD1A168B1F5004F02D0B1F5806F03D16A
:10424000016821F040010160A16AB1F5005F07D16A
:10425000016821F400510160016841F400510160DE
:10426000012084F85D00002084F85C00032001B088
:10427000F0BD000070470000FDF7DEB94EF6885033
:10428000CEF20000016841F4700101607047000047
:1042900040F2DC00C2F20000006840F2CC01C2F241
:1042A0000001002840F2940240F2E4600968C2F282
:1042B0000002C2F20000D8BF00211160FEF70ABE62
:1042C0002DE9F04782B040F2DC00C2F20000016844
:1042D00040F2E002C2F2000204391368016040F2C9
:1042E000E801181FC2F200010B68106040F2F402EE
:1042F000C2F20002181F13680860181F106040F215
:104300009800C2F20000806902F0A8FF40F6A408FD
:10431000C2F200080446D8F800000D4602F09EFFE5
:1043200006460F462046294632463B4602F0CFFF5E
:1043300000281CBF2F4626463046394602F05AFA5E
:1043400040F22C11C2F20001B1F90210C8F80000CD
:10435000084602F0F8FC9FED2C0B58EC109B4A46E7
:10436000434602F093FD9FED2A0B53EC102B02F015
:104370008DFD40F65C0AC2F2000A0646DAF800003B
:104380000F4602F06BFF04460D4630463946224682
:104390002B4602F09CFF00281CBF3D4634462046B9
:1043A000294602F027FA40F21801C2F20001CAF8C9
:1043B000000000200988ADF806000DF1060001F0AC
:1043C0006BFEBDF8060040F28C41C2F200010860AD
:1043D00002F0D0FC4A46434602F058FD9FED0E0B1A
:1043E00053EC102B02F052FD02F004FA40F290411F
:1043F000C2F20001086040F23070C2F20000FEF725
:1044000069FD02B0BDE8F087000000000000103F29
:1044100000000000000034400000000000807640F2
:1044200040F27C70C2F20000FEF754BD80B540F649
:10443000FF330268C4F2000343F2FF3C9842C4F227
:10444000010C0ADD60452EDC40F60043C4F2000397
:10445000984234D042F600432DE0B0F1804F2ED088
:1044600040F20043C4F20003984228D040F6000313
:10447000C4F20003984222D0604526DC40F2FF736C
:10448000C4F20003984235DD40F60003C4F2000395
:10449000984243D040F60043C4F2000398423DD016
:1044A00042F6004336E045F20003C4F201039842AD
:1044B00005D043F20043C4F201039842DCD14B68BB
:1044C00022F070021A436045D8DD44F2FF33C4F293
:1044D0000103984216DD44F20043C4F201039842FE
:1044E0001CD045F20003C4F20103984216D044F6F2
:1044F00000030FE0B0F1804F10D040F20043C4F24F
:10450000000309E043F20043C4F20103984205D0DE
:1045100044F20003C4F20103984203D1CB6822F4B1
:1045200040721A434B6922F0800E8A6843EA0E03F8
:10453000D1F800C00360C262A0F18042A2F59632B9
:104540004FEAB222092AC0F828C008D8012303FA8A
:1045500002F240F2E5231A421CBF096901630121FE
:1045600041610169C90708BF80BD016921F00101EE
:10457000016180BD80B5816A0A070CD4CA0715D1D4
:104580008A071ED44A0727D4CA0630D48A0639D4EB
:104590004A0657D541E00268D0F838C0536823F482
:1045A000004343EA0C035360CA07E9D00268D0F81D
:1045B0002CC0536823F4003343EA0C0353608A078A
:1045C000E0D50268D0F830C0536823F4803343EA62
:1045D0000C0353604A07D7D50268D0F834C053683B
:1045E00023F4802343EA0C035360CA06CED5026845
:1045F000D0F83CC0936823F4805343EA0C039360E3
:104600008A06C5D50268D0F840C0936823F40053E9
:1046100043EA0C0393604A0614D50268D0F844C0FC
:104620005368BCF5801F23F4801343EA0C035360E6
:1046300008D1D2F804C0D0F848E02CF4C00343EA13
:104640000E035360090658BF80BD0168C06C4A68FC
:1046500022F400221043486080BD0000B0B582B053
:1046600004460020C4F89000FCF7E0FF21680546EE
:104670000A68120736D56FF07E4C20464FF40011C1
:1046800000222B46CDF800C000F000FA48B300BF6E
:10469000206850E8000F216820F0800041E8000207
:1046A000DAB1206850E8000F216820F0800041E86E
:1046B000000292B1206850E8000F216820F08000CD
:1046C00041E800024AB1206850E8000F216820F05C
:1046D000800041E80002002ADAD12020C4F88800D6
:1046E0005EE021680868400760D56FF07E4C204688
:1046F0004FF4800100222B46CDF800C000F0C6F92F
:10470000002853D0206850E8000F216820F49070F2
:1047100041E80002BAB3206850E8000F216820F495
:10472000907041E8000272B3206850E8000F2168E1
:1047300020F4907041E800022AB3206850E8000F8E
:10474000216820F4907041E80002002ADAD11AE0D2
:10475000206850E8020F216820F0010041E80202C1
:10476000DAB1206850E8020F216820F0010041E82A
:10477000020292B1206850E8020F216820F0010087
:1047800041E802024AB1206850E8020F216820F097
:10479000010041E80202002ADAD12020C4F88C008E
:1047A0000320002184F8841002B0B0BD2020C4F89A
:1047B0008800C4F88C000020E0662067002184F89F
:1047C000841002B0B0BD0000806A0021A0F85E1025
:1047D000FEF740BD70B504462269D4E902130068B3
:1047E0000A436169E6691143026846F6F315CCF69F
:1047F000FF7531432A4011430160416848F2000CC3
:1048000021F4405119434160A269C4F2000C604593
:104810001CBF216A0A4381684FF2FF43C1F2FF13B4
:10482000194011438160C16AD4F824E021F00F01DE
:1048300041EA0E01C16244F6FF71C4F200018842F0
:104840004FF0100318DC44F20041C4F2000188422A
:1048500027D044F60001C4F20001884228D044F673
:104860000041C4F2000188423ED141F28801C4F205
:10487000020109688B092FE045F20001C4F2000132
:1048800088421CD0604521D043F60001C4F20101EA
:10489000884229D141F28801C4F202010B6877A253
:1048A0001EE041F28801C4F2020109688B0813E09E
:1048B00041F28801C4F2020109680B090CE041F2DF
:1048C0008801C4F2020109680B0A05E041F288017F
:1048D000C4F2020109688B0A47F2F832C0F60002FE
:1048E00003F0030152F82130604542F20040C0F26B
:1048F000F40013D0B6F5004F22D1082B4FF0010180
:1049000000F2B480DFE803F0055E6CB264B2B2B2CC
:104910006A00FDF7D3FA002857D15DE0082B4FF06D
:10492000010100F2A380DFE803F005A124A11CA18E
:10493000A1A12200FDF7C2FAB8B1D4F824E018E032
:10494000082B4FF0010100F29180DFE803F00569C8
:10495000778F6F8F8F8F7500FDF7B0FA002862D1C7
:1049600068E0FDF7D7FA0028E7D100217EE04FF498
:10497000004047F2CE31C0F6000131F81E106268E7
:10498000B0FBF1F002EB420188424FF001016DD320
:10499000130398426AD8010E000210EB520041F155
:1049A00000010023FBF788FC4FF6FF42A0F54071A1
:1049B000C0F20F02914203D82168C860002155E07F
:1049C000012153E0FDF790FA30B1D4F824E007E07C
:1049D000FDF7A0FA0028F8D1002147E04FF400408D
:1049E00047F2CE31C0F6000131F81E106268B0FB0C
:1049F000F1F0510801EB4000B0FBF2F04FF6EF721E
:104A0000A0F11001914209D84FF6F0710140C0F3B6
:104A1000420022680844D060002127E0012125E0FF
:104A2000FDF762FA30B1D4F824E007E0FDF772FA3E
:104A30000028F8D1002119E04FF4004047F2CE31B0
:104A4000C0F6000131F81E104FF6EF72B0FBF1F026
:104A5000616800EB5100B0FBF1F0A0F11001914250
:104A600003D82168C860002100E001214FF0011047
:104A7000A066002208466267A26770BD01000000C0
:104A80000400000002000000080000002DE9F041D1
:104A9000804600681546C2690E461140891BB1FA6E
:104AA00081F14909A94223D1069C24B3611C27D175
:104AB000C1693140891BB1FA81F14909A94217D175
:104AC000C1693140891BB1FA81F14909A9420FD16D
:104AD000C1693140891BB1FA81F14909A94207D165
:104AE000C1693140891BB1FA81F14909A942DFD07E
:104AF0000020BDE8F081FCF799FD0320BDE8F081BE
:104B00001F4607E0C0693040801BB0FA80F04009C2
:104B1000A842EDD1FCF78AFDC01BA04241D8D8F8CD
:104B2000000001684907EDD5402EEBD0802EE9D07A
:104B3000C169090738D4C1690905E3D54FF400619B
:104B4000016250E8000FD8F8001020F4907041E89E
:104B50000002002A5DD0D8F8000050E8000FD8F815
:104B6000001020F4907041E80002002A51D0D8F8DB
:104B7000000050E8000FD8F8001020F4907041E8D1
:104B80000002002A45D0D8F8000050E8000FD8F8FD
:104B9000001020F4907041E80002D2B3D8F8000071
:104BA000CFE70320BDE8F0810821016250E8000F43
:104BB000D8F8001020F4907041E80002002A00F0BC
:104BC0009580D8F8000050E8000FD8F8001020F4C5
:104BD000907041E80002002A00F08880D8F80000B8
:104BE00050E8000FD8F8001020F4907041E800025F
:104BF000002A7BD0D8F8000050E8000FD8F8001049
:104C000020F4907041E80002002A6FD0D8F800002C
:104C1000CCE74FF6FE70CEF6FF70D8F8001051E8E2
:104C2000021FD8F80020014042E80213F3B1D8F87F
:104C3000001051E8021FD8F80020014042E802139A
:104C4000A3B1D8F8001051E8021FD8F800200140A5
:104C500042E8021353B1D8F8001051E8021FD8F807
:104C60000020014042E80213002BD6D1D8F86C0096
:104C700001282CD1D8F8000050E8000FD8F8001017
:104C800020F0100041E800020AB3D8F8000050E814
:104C9000000FD8F8001020F0100041E80002B2B177
:104CA000D8F8000050E8000FD8F8001020F01000ED
:104CB00041E800025AB1D8F8000050E8000FD8F8D7
:104CC000001020F0100041E80002002AD2D120207C
:104CD0000021C8F88C00C8F86C10C8F87410C8F827
:104CE0009000032088F88410BDE8F0814FF6FE7034
:104CF000CEF6FF70D8F8001051E8021FD8F8002057
:104D0000014042E80213F3B1D8F8001051E8021F45
:104D1000D8F80020014042E80213A3B1D8F80010EF
:104D200051E8021FD8F80020014042E8021353B1B5
:104D3000D8F8001051E8021FD8F80020014042E8DE
:104D40000213002BD6D1D8F86C0001282CD1D8F84A
:104D5000000050E8000FD8F8001020F0100041E8E3
:104D600000020AB3D8F8000050E8000FD8F800108D
:104D700020F0100041E80002B2B1D8F8000050E87D
:104D8000000FD8F8001020F0100041E800025AB1DE
:104D9000D8F8000050E8000FD8F8001020F01000FC
:104DA00041E80002002AD2D12020C8F88C0000205F
:104DB0000821C8F86C00C8F87400C8F8901088F88A
:104DC00084000120BDE8F08140F2C870C2F200000A
:104DD000FEF742BAFEE700002DE9F04F81B02DED5D
:104DE0000A8B92B0DDE92654049010EE900AB0EEE2
:104DF000408A9846CDE9051202F030FA9FED200B6B
:104E000053EC102B01F0DCFD9FED1F0B06460F4607
:104E100051EC100B32463B46CDE9081002F034F954
:104E20009FED1B0B002D53EC102B04BF3946304671
:104E300002F02CF8064620460F4601F084FF024699
:104E40000B463046394601F007FD01F04DFFA0EB5F
:104E50005809B9F1010F4FEA580E0A90C0F2DE81ED
:104E60000A9A6FEA0E01A2EB0E001144032900F02A
:104E7000030C11D20024BCF1000F40F02881CDE1D9
:104E80000000000000807640000000000000F03FBD
:104E90000000000000003F40CDE9028EA0EB0C00B6
:104EA00000244FF0C03ECDE900C9079060B21E2833
:104EB0004FF01E0041F2850C1194C8BF2046C1B2CC
:104EC000C0F6420CA1FB0C37C91B07EB51010909C5
:104ED000A1EB411151FA80F1081A011948B20028DA
:104EE00044F001001091C1F11E0241B2C8BF1E2260
:104EF0001E294FF01E010E92C8BF0146CBB2A3FB84
:104F00000C769B1B06EB53031B09A3EB431353FACD
:104F100081F3591A014448B2002844F00200D5B286
:104F20000F91C1F11E0341B20C95C8BF1E231E296B
:104F30004FF01E01C8BF0146CFB2A7FB0C62A5FB14
:104F40000C65BE1A02EB56021209A2EB421252FA8B
:104F500081F2511A0F1879B244F003025FFA83F814
:104F6000C7F11E00002951B24FF01E060D95CDF875
:104F70002C80C8BF1E201E29C8BF1646F1B2A1FB57
:104F80000C54091B04EB51042409A4EB441454FAF7
:104F900086F4A41B04EB020AA8FB0C5B5FFA80F901
:104FA0004FFA8AF2CAF11E08A9FB0C51002AC8BFA9
:104FB0004FF01E085FFA88F2A2FB0C45DDE90C46B3
:104FC000A41B06EB540426097601A6EB141C109EC4
:104FD0000E9C2644ACEB0404344464B240F2A41C9E
:104FE00004EB4404C2F2000C4CF834E00CEBC404B3
:104FF000C4F814E0C4F810E0C4F80CE0C4F808E009
:10500000C4F804E00B9CA4EB0B040BEB540426093E
:105010007601A6EB14140F9E1E44E31A33445BB2D0
:1050200003EB43034CF833E00CEBC303C3F814E089
:10503000C3F810E0C3F80CE0C3F808E0C3F804E0DC
:10504000A9EB010301EB53010B095B01A3EB111168
:10505000C319081A184440B200EB40004CF830E085
:105060000CEBC000C0F814E0C0F810E0C0F80CE091
:10507000C0F808E0C0F804E0501B05EB500001093F
:105080004901A1EB101008EB0A01A0EB080008444D
:1050900040B200EB4000119C0CEBC0014CF830E03A
:1050A00007980434A042C1F814E0C1F810E0C1F838
:1050B0000CE0C1F808E0C1F804E07FF4F7AEDDE9E8
:1050C000028EDDE900C9BCF1000F00F0A78060B2DC
:1050D0001E2141F2850A1E28C8BF2146CBB2C0F668
:1050E000420AA3FB0A769B1B06EB53031B09A3EBA7
:1050F000431353FA81F3591A21444BB2C1F11E06EE
:10510000002BC8BF1E26F3B2A3FB0A755B1B05EB81
:1051100053031D096D01A5EB131331449B1B194467
:1051200049B201EB410640F2A411C2F200011E2770
:1051300001EBC6054FF0C033BCF1010F41F836302A
:105140006B612B61EB60AB606B6067D0621C56B229
:105150001E2EC8BF1746FEB2A6FB0A50361A00EB39
:1051600056063609A6EB461656FA87F6F71B3A445A
:1051700057B2C2F11E06002FC8BF1E26F7B2A7FB0A
:105180000A503F1A00EB57073D096D01A5EB1717B1
:105190003244BF1B3A4452B202EB420201EBC20757
:1051A000BCF1020F41F832307B613B61FB60BB60B8
:1051B0007B6033D0A21C53B21E2B1346D8BF1E23D4
:1051C000DFB2A7FB0A657F1B05EB57073F09A7EB7B
:1051D000471757FA83F7FB1A1A4453B2C2F11E0756
:1051E000002BC8BF1E27FBB2A3FB0A06981B06EBC9
:1051F000500003095B01A3EB10103A44C01B10449C
:1052000040B200EB400001EBC0024FF0C03341F868
:10521000303053611361D360936053600A9800EBA0
:105220000E041E2C00F3DB81C4F11F00C4F11E012B
:1052300041F2850A40F2A41C00F003004FF01E0B5F
:105240000329C0F6420AC2F2000CC0F02481CDE965
:10525000028ECDE9000920444FF01F0E4FF0C03AF6
:1052600007940B90AEF101014AB21E2A4FF01E02C4
:1052700041F28500C8BF0A46D3B2C0F64200A3FB84
:1052800000769B1B06EB53031B09A3EB431353FA56
:1052900082F39A1A0A4451B20029AEF10201119226
:1052A000C2F11E054AB2C8BF1E25ECB21E2A4FF03D
:1052B0001E020F94C8BF0A46D3B2A3FB00769B1B05
:1052C00006EB53031B09A3EB431353FA82F39A1A19
:1052D0000A4451B20029AEF10301A4FB00741092FC
:1052E000C2F11E084AB20E94C8BF4FF01E085FFA02
:1052F00088F61E2A4FF01E020D96C8BF0A46D3B28A
:10530000A3FB00741B1B04EB53031B09A3EB431308
:1053100053FA82F39A1A02EB010B4FFA8BF1AEF1BA
:10532000040EA6FB0076CBF11E0400294FFA8EF185
:105330000C96C8BF1E241E294FF01E010646C8BF8A
:105340007146CFB2A7FB062CA7EB0C070CEB570757
:105350003F09A7EB471757FA81F7E0B2791AA0FB8C
:1053600006927144814648B2C1F11E070028C8BFA9
:105370001E275FFA87FCACFB0660DDE90E36394478
:10538000F61A03EB560633095B01A3EB1613119EC5
:105390005B1B2E4433445BB240F2A41603EB430381
:1053A000C2F2000646F833A006EBC303C3F814A00C
:1053B000C3F810A0C3F80CA0C3F808A0C3F804A059
:1053C000DDE90C535B1B05EB53031D096D01A5EBD8
:1053D0001313109DA3EB080345442B445BB203EB6E
:1053E000430346F833A006EBC303C3F814A0C3F885
:1053F00010A0C3F80CA0C3F808A0C3F804A0A9EB40
:10540000020302EB530213095B01A3EB121204EB3C
:105410000B03121B1A4452B202EB420246F832A0AE
:1054200006EBC202C2F814A0C2F810A0C2F80CA089
:10543000C2F808A0C2F804A0ACEB000200EB5200D6
:1054400002095201A2EB1010C01B084440B200EB4D
:10545000400006EBC00146F830A00B98C1F814A03C
:105460007045C1F810A0C1F80CA0C1F808A0C1F89F
:1054700004A07FF4F7AEAEF1010BDDF80CE0DDE93E
:105480000198079C40F2A41C41F2850A0098C2F2E0
:10549000000CC0F6420A002800F0A1804FFA8BF100
:1054A0001E294FF01E01C8BF5946CAB2A2FB0A37D7
:1054B000D21B07EB52021209A2EB421252FA81F2FE
:1054C000511A59444AB2C1F11E03002AC8BF1E2313
:1054D000DFB2A7FB0A26BF1B06EB57073E09760182
:1054E000A6EB17171944FB1A194449B201EB410303
:1054F0001E220CEBC3074FF0C03101284CF83310CB
:1055000079613961F960B960796068D0ABF1010304
:105510005FB21E2FC8BF1A46D7B2A7FB0A657F1B12
:1055200005EB57073F09A7EB471757FA82F7BA1A57
:105530001A4453B2C2F11E07002BC8BF1E27FBB28C
:10554000A3FB0A655B1B05EB53031E097601A6EB63
:1055500013133A44DB1B1A4452B202EB42020CEB27
:10556000C20302284CF8321059611961D960996060
:10557000596034D0ABF1020041B21E290146D8BFB8
:105580001E21CAB2A2FB0A37D21B07EB5202120934
:10559000A2EB421252FA81F2511A084441B2C0F110
:1055A0001E020029C8BF1E22D1B2A1FB0A37C91BA7
:1055B00007EB51010B095B01A3EB11111044891A90
:1055C000084440B200EB40000CEBC0014FF0C03289
:1055D0004CF830204A610A61CA608A604A60A1457D
:1055E0006DDA4046F24601F0C5FB9FED390B53ECF6
:1055F000102B01F04BFC834618EE100A0C4601F00C
:105600002DFE804604989FED34BA00EE100AB8EEE5
:10561000408A0598894600EE100AB8EE409A06982E
:10562000CAF1000500EE100AB8EE40AA4FEA4A0699
:10563000B7EE00CA1AE000BF20EE081ABDEEC11A8C
:1056400011EE101A20EE091A20EE0A0ABDEEC11A58
:10565000BDEEC00A11EE102A10EE103A78B2FEF735
:10566000A5FB0135013EAAF1010A28D00A98BAF13A
:10567000000F00EB0507B0EE4C0ADDD0504648BFE6
:10568000284601F060FB5A46234601F099F942464C
:105690004B4601F0FBFB02460B46DDE9081001F02A
:1056A000F3FC01F0A7F801EE100AB4EE4B1AB0EECD
:1056B0004B0AF1EE10FAC8BFB0EE410ABCE712B0D7
:1056C000BDEC0A8B01B0BDE8F08F00BF00BF00BF8A
:1056D000000000000000E03FCDCC4C3D0000000089
:1056E0002DE9F04F81B02DED0A8B84B0DDE918581B
:1056F000834610EE900AB0EE408A1C4692468946D8
:1057000001F0ACFD9FED500B53EC102B01F058F95C
:105710009FED4F0B07460E4651EC100B3A463346B1
:10572000CDE9021001F0B0FC9FED4B0B002D53ECC6
:10573000102B04BF3146384601F0A8FB0646404610
:105740000F4601F000FB02460B463046394601F099
:1057500083F801F0C9FA0646A0EB540006EB5401A9
:1057600088426BDA20465D464FEA540B01F002FB9B
:105770009FED3B0B53EC102B01F088FB019018EED2
:10578000100A0C4601F06AFD8046484600EE105AA9
:10579000B8EE408A00EE100AB8EE409A00EE10AA69
:1057A0009FED31BA8946B8EE40AACBF100054FEA29
:1057B0004B0AB7EE00CA1AE020EE081ABDEEC11A75
:1057C00011EE101A20EE091A20EE0A0ABDEEC11AD7
:1057D000BDEEC00A11EE102A10EE103A78B2FEF7B4
:1057E000E5FA0135BAF1010AABF1010B26D07719C0
:1057F000BBF1000FB0EE4C0ADED0584648BF284639
:1058000001F0A1FA019A234601F0DAF842464B462C
:1058100001F03CFB02460B46DDE9021001F034FCCE
:1058200000F0E8FF01EE100AB4EE4B1AB0EE4B0A9E
:10583000F1EE10FAC8BFB0EE410ABDE704B0BDEC0E
:105840000A8B01B0BDE8F08F0000000000807640B8
:10585000000000000000F03F0000000000003F409A
:10586000000000000000E03FCDCC4C3D2DE9F04FA2
:1058700083B04FF0030A4FF0C03900BFAAF1030E06
:105880004FFA8EF01E284FF01E0041F28503C8BF6C
:105890007046C1B2C0F64203A1FB0324091B04EB0E
:1058A00051010909A1EB411151FA80F1081A00EBED
:1058B0000E0148B2C1F11E0200284EF00100029113
:1058C000C8BF1E225FFA82F844B21E26CDF80080BF
:1058D0001E2CC8BF0646F7B2A7FB0341A8FB034333
:1058E0007C1A01EB54010909A1EB411151FA86F12F
:1058F000891B01EB00084FFA88F04EF00201C8F155
:105900001E0700284CB20193C8BF1E271E2C4FF063
:105910001E0441F28503C8BF0C46E5B2C0F642033F
:105920005FFA87FBA5FB03CEABFB030CA5EB0E00D8
:105930000EEB50000009A0EB401050FA84F0001B61
:10594000084441B2C0F11E050029C8BF1E25E9B2B6
:10595000A1FB0343DDE90046C91AA41B06EB54046E
:1059600026097601A6EB1416029C03EB51011444A0
:10597000B21A224452B240F2A41402EB4202C2F222
:10598000000444F8329004EBC202C2F81490C2F84A
:105990001090C2F80C90C2F80890C2F80490ABEBDB
:1059A0000C020CEB520216097601A6EB121207EB61
:1059B0000806D21B324452B202EB420204EBC20789
:1059C00044F832900A095201A2EB11112844491BF4
:1059D000084440B200EB400004EBC001BAF11F0FD5
:1059E000C7F81490C7F81090C7F80C90C7F8089043
:1059F000C7F8049044F83090C1F81490C1F81090A2
:105A0000C1F80C90C1F80890C1F8049042D04FFA48
:105A10008AF01E284FF01E0041F28507C8BF50468D
:105A2000C1B2C0F64207A1FB0723C91A03EB51011B
:105A30000909A1EB411151FA80F1081A504441B211
:105A4000C0F11E020029C8BF1E22D1B2A1FB073738
:105A5000C91B07EB51010B095B01A3EB11111044AA
:105A6000891A084440B240F2A41200EB4000C2F28E
:105A7000000202EBC00142F83090C1F81490C1F866
:105A80001090C1F80C90C1F80890C1F804900AF188
:105A9000040AF3E603B0BDE8F04F00F001B80000DF
:105AA00040F2806040F2A411C2F20000C2F2000194
:105AB0004FF44072FDF710B880B588B092ED002A1F
:105AC000B5EE402AF1EE10FA20DA9FEDB11A00BFD0
:105AD00032EE012AB5EE402AF1EE10FA14DA32EE77
