:020000040800F2
:100000006814002095020008593D0008E9390008ED
:10001000553D0008D50C0008994A00080000000072
:1000200000000000000000000000000089400008FF
:10003000C90D000800000000893D0008BD4000080F
:10004000AF020008AF020008AF020008AF020008CC
:10005000AF020008AF020008AF020008AF020008BC
:10006000AF020008AF020008AF020008ED0C000864
:10007000FD0C0008AF020008AF020008AF02000844
:10008000AF020008AF020008AF020008AF0200088C
:10009000AF020008D90D0008E90D0008AF02000802
:1000A000AF020008AF020008D9400008AF02000804
:1000B000AF020008AF020008AF020008AF0200085C
:1000C000AF020008AF020008AF020008D53D0008EB
:1000D000E53D0008AF020008AF020008894A0008A9
:1000E000AF020008AF020008AF020008AF0200082C
:1000F000AF020008AF020008AF020008AF0200081C
:10010000AF020008AF020008AF020008AF0200080B
:10011000AF020008AF020008114100089941000831
:10012000AF020008AF020008AF020008AF020008EB
:10013000AF020008AF020008AF020008AF020008DB
:10014000AF020008AF020008AF0200080000000084
:10015000000000000000000000000000000000009F
:10016000000000000000000000000000AF020008D6
:10017000AF020008AF020008AF020008AF0200089B
:10018000AF020008AF020008AF020008AF0200088B
:10019000AF02000800000000F90D0008090E000879
:1001A000AF020008AF020008AF020008AF0200086B
:1001B000AF020008AF020008AF020008AF0200085B
:1001C000AF020008AF020008AF020008AF0200084B
:1001D000AF020008AF02000800F002F800F04BF890
:1001E0000AA090E8000C82448344AAF10107DA4592
:1001F00001D100F040F8AFF2090EBAE80F0013F099
:10020000010F18BFFB1A43F0010318474C690000A7
:100210006C690000103A24BF78C878C1FAD8520738
:1002200024BF30C830C144BF04680C607047000070
:100230000023002400250026103A28BF78C1FBD8EF
:10024000520728BF30C148BF0B607047662906F0CF
:100250000E84002070471FB506F0F7FB00F0C4FBCA
:1002600004000020002105F0F5FEE06000F076F9C2
:100270001FBD10B510BD00F0B7FC1146FFF7EBFF36
:1002800005F006FA00F0D5FC03B4FFF7F2FF03BC5B
:1002900000F018FD0948804709480047FEE7FEE7DF
:1002A000FEE7FEE7FEE7FEE7FEE7FEE7FEE7FEE726
:1002B00004480549054A064B70470000C540000840
:1002C000D90100086808002068140020680C00208C
:1002D000680C002053EA020C00F069802DE9F04B15
:1002E0004FF00006002B1FBFB3FA83F503FA05F4A5
:1002F00024FA05F65E4012BF1643B2FA82F502FAFE
:1003000005F4C5F120051EBF22FA05FC44EA0C04E1
:10031000203556EA044C4FEA144418BF641C4FF0D1
:1003200000084FF00009904271EB030C39D300290B
:1003300019BFB1FA81F701FA07F6B0FA80F700FAAF
:1003400007F6C7F120071EBF20FA07FC46EA0C0695
:100350002037B6FBF4FCA7EB0507103F07F01F0B97
:10036000CBF120062CFA06F60CFA0BFB44BFB34681
:100370000026202FA4BF5E464FF0000B5BEA060C60
:1003800008BF4FF0010B19EB0B0948EB0608ABFB5C
:10039000027C06FB02CC0BFB03CCC01B71EB0C01F7
:1003A000C1E70B46024641464846BDE8F08B13B50F
:1003B000084318BF4FF0FF300146AFF30080BDE89F
:1003C0001C4070470FB41CB50C0007AA009001D068
:1003D0002044401E074B7B4469460190069800F07C
:1003E000E2FA002C03D06946002000F0EFFA1CBCB2
:1003F0005DF814FBFD0500002DE9F0474FF0000A01
:1004000089460446C0F820A02046E16888470028B5
:1004100076D0252806D0D4E901219047206A401CD7
:100420002062F1E7E168204600258847C4F81CA057
:1004300006460027C4F818A02A2E09D0304605F039
:1004400002FE38B304EB8708303EC8F8186019E0A4
:1004500059F8041B204604EB87029161E168884744
:10046000012F064618D1E069002820DA25F0200582
:100470001DE0D8F8180000EB800006EB4000303893
:10048000C8F818002046E1688847064605F0DBFDFD
:100490000028EED1012F0AD02E2E08D12046E16887
:1004A00088477F1C0646022F45F02005C4DBA06963
:1004B000002803DA404245F00105A061E80701D0B9
:1004C00025F01005B6B1A6F14100192802D8203652
:1004D00045F400654A463146204625604D46FFF703
:1004E000B5FE58B1012806D0ED1D25F0070000F13A
:1004F000080989E704E005F1040985E730468AE741
:10050000206ABDE8F0874FF0000200B5134694461C
:100510009646203922BFA0E80C50A0E80C50B1F15B
:100520002001BFF4F7AF090728BFA0E80C5048BF6F
:100530000CC05DF804EB890028BF40F8042B08BF0D
:10054000704748BF20F8022B11F0804F18BF00F809
:10055000012B7047704770477047000070B5064C1C
:100560007C44064D7D4404E02046016808448047F1
:10057000241DAC42F8D170BD30660000306600002A
:100580002DE9FF4F0C461E464FF0FF378BB0D2E9E6
:100590000001DDF860800A908A46C1F30A5505B96A
:1005A0003D46002108464FF00000BAF1000F00F46C
:1005B000400005DA00EB80004FF4400101EA5000F2
:1005C0004FEA9059B9F1010F00DDB9460A9850EA97
:1005D0004A000ED044F61050A5F2FF3545432F14C3
:1005E000B8F1000F1ED07542291E1EDDC9F10002B0
:1005F0001CE0B8F1010F4FF0000001D0302103E002
:10060000F24305E02154401CB042FBDB304600229F
:10061000002121540B99C1F80880C1E900200FB0D6
:10062000BDE8F08FBD1B6D1CDEE74A4600DA69426B
:1006300006A800F063FA06AB93E8070003AB83E873
:10064000070050460A9905F01EF98DE80700A0F54D
:1006500000501F3800900398002D0ADD42F21F0160
:100660004A460844002303A90390684605F087FB27
:1006700009E0A0F500504A461F38002303A9039063
:10068000684605F091FB8DE807000004000C03D0DC
:100690004FF0FF30410800E01046B8F1000F03D0E2
:1006A0000022009215461EE0751E05D400F0A0F948
:1006B000303262556D1EF9D5B3460122084302D08F
:1006C00000227F1C04E02078302801D100227F1E08
:1006D000002A099784D01DE0112D07DA00F088F96F
:1006E000303262556D1C50EA0102F5D1084302D048
:1006F0000098C8B10EE00021681E05E0235C625C32
:1007000063542254401E491C8142F7DBAB46A81BB0
:10071000401E0990002004F80B000B98099AC0F8BD
:100720000880C0E9002B7AE711264FF0000857E750
:100730002DE9F04F88460446D21D22F0070191B002
:10074000D1E90001CDE90A0105F065FC02460B98EC
:10075000C00F01D02D2007E02068810701D52B2094
:1007600002E0202101EAC000032A099001D0072AF3
:1007700005DB03464146204600F080F90BE1207876
:10078000800601D5E06900E00620B8F1650F8146DA
:1007900006D0B8F1660F18D0B8F1670F70D131E00C
:1007A0000020B9F1110F009001DB112301E009F1E4
:1007B00001030AAA01A90CA8FFF7E2FEDDE90C700B
:1007C000002609F10105834647E001204B460090D1
:1007D0004FF000470AAA01A90CA8FFF7D1FEDDE9F6
:1007E0000DB00C995D46002610B909F101000D18F5
:1007F000B9EB050003D4C0F1FF3609F10105A5EB03
:1008000009002BE0B9F1010F01DA4FF001090020D6
:10081000B9F1110F0090484601DD112300E00346B5
:100820000AAA01A90CA8FFF7ABFEDDE90C704D4642
:1008300000268346207800070AD4AB4500DA5D46DF
:1008400001A8012D04DD411911F8011C302907D040
:100850004F4502DA17F1040F04DA012082460FE057
:100860006D1EEEE7002F02DCED1B3E4403E0781C1A
:10087000A84200DD7D1CB81B00F1010A4FF00047C3
:100880002078000703D4AA4501DB4FF0FF3A00218E
:10089000B7F1004F0DF143088DF8431024D002202A
:1008A0002B23002F01DA7F422D230A21021EA0F103
:1008B000010000DC5FB197FBF1FC97FBF1F201FB5B
:1008C0001C7C17460CF1300C08F801CDEEE7A8F1BE
:1008D000010003702188090501D5452100E065214B
:1008E000A0F1010800F8011C09980FA9A1EB080765
:1008F000FF1D00B10120411901EBEA70A1693844E4
:10090000081A401EA0612078C00602D42046AFF32A
:100910000080099828B1D4E901219047206A401C41
:1009200020622078C00622D52046AFF300801EE06A
:10093000002E04DBB34502DD01A8805D00E030201D
:10094000D4E901219047206A401C2062761CAAF15C
:1009500001005FEA000A0AD100F046F8C0680168A9
:10096000405CD4E901219047206A401C2062281E87
:10097000A5F10105DCDC07E0D4E9012118F8010B41
:100980009047206A401C2062381EA7F10107F3DC63
:100990002046AFF30080032011B041E601694A1CF4
:1009A00002610878704700B58FB0CDE901310021B0
:1009B000059105497944CDE9031011466846FFF7D2
:1009C0001BFD0FB000BD0000E5FFFFFF0A6802F845
:1009D000010B0A607047D1E900239A4202D2531CEE
:1009E0000B6010707047000000487047380000200E
:1009F00030B5B0F10A0271F100034FEA900E4EEAF1
:100A0000817EB0EB0E0061EB91014FEA101E4EEAC1
:100A1000017E10EB0E0041EB11114FEA102E4EEA51
:100A2000016E10EB0E0041EB11214FEA104E4EEA21
:100A3000014E10EB0E0041EB1141401841F1000155
:100A40004FEAD00040EA41704FEAD1014FEA8104F9
:100A500044EA907410EB800544EB01046D1944EBFB
:100A60000404521BA3414FF0000348BF0A3200D5D3
:100A700030BD401C41F1000130BD00002DE9F041C6
:100A80001F46044603260168072A01F4006004DBC0
:100A900008B116A505E016A503E008B115A500E00C
:100AA00015A521F010002060A069C01EA0610FB143
:100AB000401EA0612046AFF300804FB1D4E9012170
:100AC00038469047206A401C2062C01C206206E025
:100AD000206AFAE7D4E9012115F8010B9047761E48
:100AE000F8D22046AFF30080BDE8F0814E414E00C1
:100AF0006E616E00494E4600696E66002DE9F04752
:100B0000814616468AB0354878440DC88DE80D00F8
:100B100032487844801C03AC0DC884E80D0041F6CF
:100B20009B300844372190FBF1F290FBF1F5A5F1E1
:100B3000800501FB12041B3C02D56442012000E049
:100B40000020DFF898A080460027FA44AAF1BE0AE8
:100B50000EE0E0070AD03246684607EB4701012362
:100B60000AEB810105F020F98DE8070064107F1C75
:100B7000002CEED1194F7F44AE3F19E0E80715D0A5
:100B800007EB04100DF1180A90E80E008AE80E0039
:100B9000C068F04201D1981908903246012306A995
:100BA00003A805F001F903AB83E807006D10641C8E
:100BB000002DE3D14FF0010332466946B8F1000F32
:100BC00003A802D005F0DBF801E005F0EDF8C9E973
:100BD0000001C9F808200AB0BDE8F087E45F000012
:100BE00000487047180000207546FFF7F9FFAE4631
:100BF00005006946534620F00700854618B020B529
:100C0000FFF756FBBDE820404FF000064FF000070D
:100C10004FF000084FF0000BAC46ACE8C009ACE860
:100C2000C009ACE8C009ACE8C00921F007018D4655
:100C3000704710B50446AFF300802046BDE8104071
:100C4000FFF722BB0000000030B44FF0013C50F829
:100C5000042B51F8043BCCFA52F4D51A20D1FCB93C
:100C600050F8042B51F8043BCCFA52F4D51A17D1A2
:100C7000B4B950F8042B51F8043BCCFA52F4D51A0D
:100C80000ED16CB950F8042B51F8043BCCFA52F455
:100C9000D51A05D1002CDAD030BC4FF000007047D7
:100CA00029BAB1FA81F111F01801D1F12000844084
:100CB000F2D1CA40CB4012F0FF0213F0FF0330BC68
:100CC000D01A704701491820ABBEFEE7260002008B
:100CD00070470000FEE7000080B50121002200F00F
:100CE000A9FA002818BF00F071F880BD80B540F265
:100CF000F430C2F2000000F083F980BD80B540F20C
:100D00005440C2F2000000F07BF980BD80B501685C
:100D10006FF007024CF6CD4352FA81F2CCF6CC4389
:100D2000A2FB032C40F20842D0F844E0C4F20202D5
:100D300002F5836391422EF0030138BF02F57E7302
:100D40001944816402F58F61C164CCF3041101225E
:100D500002FA01F1016580BD017940F60012013906
:100D6000C4F2020202EB810302F1400C01F01F0108
:100D7000012202FA01F1C0E9153CC165704700008B
:100D800070B5D0E913C4D0F854E0CCF80440BEF1FB
:100D9000000F1CBFD0E916C4CCF80440D0E9106E97
:100DA0000468D0F808C00EF01F00012505FA00F015
:100DB000706008466360BCF1100F04BF10460A461D
:100DC000A060E26070BD000070470000EFF310808B
:100DD00072B600BFFEE7000080B540F2B440C2F238
:100DE000000000F099FB80BD80B540F2B440C2F233
:100DF000000000F091FB80BD80B540F21850C2F2B7
:100E0000000000F089FB80BD80B540F21850C2F2AE
:100E1000000000F081FB80BD80B546F60002C4F200
:100E20000002036802F57051D0E90DCE934204BF71
:100E30004AF25071C4F2000102F58062934208BF89
:100E400001F5D4610164D3F8802022F4F81242EA5B
:100E50000C42C3F8802001F170024264D3F8802074
:100E600022F0706242EA0E62C3F8802001F1B00203
:100E7000826401F5C472C26401F51872026501F55D
:100E80001E72426501F55470002200BF41F8042B28
:100E90008142FBD380BD00002DE9F04701F1100A2B
:100EA000D1E902489AE84006D1E900CECF6934433F
:100EB0000D6A4CEA040646F0804647EA0567BEF133
:100EC000000F08BF44EA8C4647EA0A07456D47EA27
:100ED000090703EBC30347EA084705EBC30045F8DE
:100EE00033604760CB68002B08BFBDE8F08746F64B
:100EF000383C083001320023C0F6000CD71857F8F0
:100F0000017CC750CF6804331CF80770BB42F5D38F
:100F1000BDE8F08780B5014690F82500022824D16D
:100F20000868D1E910CE8A6C036823F00E030360D1
:100F3000136823F480731360026822F001020260D8
:100F40000EF01F00012202FA00F0CCF80400D1E9F3
:100F500013205060486D60B1026822F48072026014
:100F6000D1E916024260002004E00420C863012099
:100F700000E00020012281F82520002281F82420B1
:100F800080BD000080B590F8251002292DD10168A0
:100F9000D0E910CE826C0B6823F00E030B600B6857
:100FA00023F001030B60116821F4807111600EF0D1
:100FB0001F02012101FA02F2CCF80420D0E9133219
:100FC0005A60426D32B1136823F480731360D0E924
:100FD0001623536080F82510826B002180F82410BE
:100FE0000AB190470021084680BD0421C163012158
:100FF000002280F8251080F82420084680BD0000DB
:10100000B0B50268D0E910C4DCF80050136804F0F1
:101010001F0E590712D5042101FA0EF414EA050136
:101020000CD01168890603D4116821F00401116005
:10103000CCF80440016BB9B38847B0BD990718D507
:10104000022101FA0EF414EA050112D01168890692
:1010500006D4116821F00A011160012180F82510E1
:10106000CCF80440C16A002280F82420E1B188470E
:10107000B0BD190758BFB0BD082101FA0EF12940D3
:1010800012D0116821F00E011160012101FA0EF257
:10109000CCF80420C16380F82510416B00220029A0
:1010A00080F8242018BF8847B0BD0000002804BF86
:1010B000012070472DE9F04140F2000C0446C4F2D3
:1010C000020C00684FF6F8330CF58162CBF6FD7325
:1010D000904238BF03F5806300EB03024CF6CD432A
:1010E000CCF6CC43A2FB032304F1080E0CF580617F
:1010F0006FF003059EE804413CBF0021C4F20201E9
:1011000005EA9303C4E91013022184F8251001684D
:1011100047F6F073994304F114071143E8CF41EA0D
:10112000080141EA0E011943294331433943016063
:101130002046FFF7EBFDA06804F14803B0F5804FAF
:1011400004BF0020606060680ECBC7B2013803287E
:101150000F60536009D82046FFF7FEFD04F15402EA
:1011600007CA002303604A6003E00020C4E91500B9
:10117000E06500200121E06384F8251084F8240054
:10118000BDE8F08110B5044690F82400012820D075
:10119000012084F8240094F82500012816D10220AB
:1011A00084F825000020E063D4F800C0DCF80000DB
:1011B00020F00100CCF800002046FFF7E1FD206898
:1011C000226B01683AB141F00E010AE0002084F878
:1011D0002400022010BD21F004010160016841F0EB
:1011E0000A010160A16C0A68D20303D50A6842F4BF
:1011F00080720A60616D19B10A6842F480720A60F7
:10120000016841F001010160002010BDB0B5044645
:1012100000F04AFD054640F21000C2F200000068EE
:10122000611C18BF044400BF00F03EFD401BA042FB
:10123000FAD3B0BD10B590F85C30013B012B66D8F5
:10124000006811F0070CD0F858E00EF0010300D050
:101250001BB311F0380F02D01EF002041DD011F4A0
:10126000E07F02D01EF0040417D011F4F05F02D02A
:101270001EF0080411D011F4604F02D01EF01004CB
:101280000BD011F4403F02D01EF0200405D011F421
:101290007C0F06D01EF0400403D1C46D44F001045D
:1012A000C465002B18BFBCF1000F38D111F0380F06
:1012B00018BF1EF0020332D111F4E07F18BF1EF0F8
:1012C00004032CD111F4F05F18BF1EF0080326D1DF
:1012D00011F4604F18BF1EF0100320D111F4403FED
:1012E00018BF1EF020031AD111F47C0F18BF1EF096
:1012F000400314D10B0618D4CB0504D5D0F8E03048
:101300001A43C0F8E02000F15402002003E000F18D
:1013100060020120022113681943116010BDC36DE2
:1013200043F00203C3650B06E6D5D0F8DC30134367
:10133000C0F8DC30CB05E1D4E5E70000B0B50446E9
:1013400090F85C00022814D12068D0F8C4309B02C9
:1013500013D4D0F8C400C0F3014520462B46FFF754
:101360009BFD01202168A840C1F8CC00A0650020A9
:10137000B0BD206E40F0080002E0206E40F4007026
:1013800020660120B0BD000080B590F85C20013AD5
:10139000012A13D80A68BAB101F1040ED1E9043167
:1013A0009EE80450406C43EA4E7E41EA8C7100EBAB
:1013B000C20340F832E00020596080BD016E41F068
:1013C00002010166012080BDD1E90323D1E901CEEC
:1013D000D206496942EA8E7242EA0342006C114326
:1013E00040F82C10002080BD7047000070470000BE
:1013F00070B590F85C50022D19D1D0F800C040298A
:1014000019D1DCF890502D077DD0DCF89050ED011B
:1014100046BFDCF88050C5F340250025DCF890403D
:10142000C4F3012404EB050C00F1480518E0016E3B
:1014300041F008016AE0DCF898502D0763D0DCF831
:101440009850ED0146BFDCF88050C5F3002500251B
:10145000DCF89840C4F3012404EB050C00F14C05C2
:10146000D5F800E00CEBCC045EF8345015F0804564
:1014700055605EF83450C5F38A4618BF25F06046C3
:1014800016605EF8345005F0005595605EF83450F3
:101490000EEBC40E05F000441461BEF80440D461A4
:1014A000BEF8064014F00F04D460DEF8044004F4E3
:1014B00080145461DEF8044004F4001494619EF832
:1014C000074004F07F041462DEF804404FEAD4744D
:1014D00054620FD046F638350EF1080E0024C0F6DF
:1014E000000500BF1EF804601E55D6680134AE5DCD
:1014F000B442F7D3006840290CBFC0F894C0C0F8CC
:101500009CC0002070BD016E41F480710166012015
:1015100070BD0000704700002DE9F04F85B0044613
:101520000068016D426D056DD0F85490D0F850A060
:10153000D0F85480036D01EA020B0493436D0393CA
:10154000036D0293436D0193436D076D1F407B064E
:1015500004D5402101652046FFF7DCFF05EA0906B6
:10156000F8050BF4E0550BD52068D0F8D810D0F86A
:10157000E02011404FF480720265204600F0B6FA78
:1015800008EA0A0806F007062DB120682946056515
:10159000204600F0AFFA08F038052EB12068314639
:1015A0000665204600F0C0F92DB120682946056582
:1015B000204600F07FFAB8053CD4380643D4B8047E
:1015C00006D520684FF400510165204600F08CFAE2
:1015D0003804DDE9011000EA010506D520684FF462
:1015E00000410165204600F07DFADDE90310084066
:1015F000790405F4602107D522684FF48043136510
:10160000226E42F08002226600F4710521B120684A
:1016100001652046FFF7EAFE25B120680565206ECA
:1016200028432066206E10B12046FFF7DDFE05B08E
:10163000BDE8F08F20684FF400710165204600F08E
:101640005BFA3806BBD52068D0F8D410D0F8DC207F
:10165000114080220265204600F04AFAB804B0D456
:10166000B6E70000B0B5D8B1044690F85C0028B9E0
:10167000002084F85D00204600F0B8F820688169F9
:1016800021F01001816100F00FFB0546206881699F
:10169000090707D500F008FB401B0B28F6D312E022
:1016A0000120B0BD816941F00101816100F0FCFAC7
:1016B000054600BF20688169C9070DD100F0F4FA22
:1016C000401B0B28F6D3206E032140F0010020665A
:1016D000012084F85C10B0BD826946F20041C4F27A
:1016E000000142F002028842826102D16268C1F8C0
:1016F0000021217C8269012942F0400308BF22F0C9
:1017000040038361617C8269012922F4804308BF20
:1017100042F480438361A17C8269012942F48053B1
:1017200008BF22F4805383618169D4E902C221F4A5
:10173000407343EA0C038361836923F0A40383614C
:10174000036923F010030361C2B1012A03D1826946
:1017500042F0040211E08369022A02D143F0200220
:101760000BE043F0800383610369032A43F0100315
:10177000036103D1826942F020028261D4E90552FB
:10178000D4E907316FF0FF0E013A0EEB032343EA71
:10179000426200230139CFF6FF73114303EB054288
:1017A0001143BCF5407FC16110D1D4E909C2D4E92D
:1017B0000B51013A0EEB05252A436FF00F0505EB9F
:1017C0000111114303EB0C421143C160E16BD0F8EE
:1017D000C0201143C0F8C0102046FFF71DFB0020B9
:1017E0000121A065206684F85C10B0BDB0B59CB046
:1017F000044600201B90CDE91900CDE9170002A88E
:101800005421FEF780FE206846F60001C4F2000174
:10181000884239D046F20041C4F20001884240F0CB
:1018200081804FF4805002904FF00070109002A819
:1018300000F03AFB002818BFFFF7C8FA40F2780121
:10184000C2F200010A6841F24C00C4F20200531CCB
:101850000B6042B9C16841F00071C160C16801F01C
:101860000071019101990168162441F001010160A4
:101870000068152500F00100019001984FF4C05058
:1018800017904FF0904033E04FF4805002904FF0AB
:101890000070109002A800F007FB002818BFFFF7A7
:1018A00095FA40F27801C2F200010A6841F24C0058
:1018B000C4F20200531C0B6042B9C16841F00071D0
:1018C000C160C16801F0007101910199016857245C
:1018D00041F0020101600068562500F0020001900D
:1018E00001984FF48250179040F20040C4F6000077
:1018F000022118910021CDE9191109211B9117A985
:1019000000F0FCF828460021002200F03DFA2846AD
:1019100000F036FA20460021002200F035FA204679
:1019200000F02EFA1CB0B0BD2DE9F047A0B040F693
:101930003001C2F200010A680446501C086040F2FF
:10194000B441C2F2000120680968884222D040F206
:101950001851C2F2000120680968884212D140F291
:10196000185040F2F403C2F20000C2F2000308AAC9
:101970004021FFF73DFD40F2FC70C2F2000001681B
:1019800001310160204601210022FFF753FC20B005
:10199000BDE8F08740F2B440C2F2000014AA1EABCA
:1019A0004021FFF725FD149840F62401C2F2000102
:1019B000820508602ED400F41060B0F5106FC6D117
:1019C00014AB0FCB0DF1200C8CE80F00DDE91801F2
:1019D000DDE91E5CCDE90C01DDE91A010DF1340AE7
:1019E000CDE90E01DDE91C010DF1200ECDE910015C
:1019F00012959AE8C0079EE80F40CDE900E60DF188
:101A0000080ECDF84CC08EE88007CDE9065C03F0E7
:101A1000EBFE9CE740F27C05C2F20005696F0029ED
:101A200008BF6867A86A411C322840F27C00A9629E
:101A3000C2F200001EA902D803F03CFA01E003F054
:101A4000E9FA95F8700080B340F2EC30C2F2000081
:101A500090ED000A40F20400C2F20000D0ED000A4E
:101A600003F086F940F2BC70C2F2000040F60001BB
:101A7000C26BDFED0F0AC2F2000181ED000A904750
:101A8000BDEEC01A40F63C0111EE100ABDEEC00AD0
:101A9000C2F2000181ED000A4FF47A550146024678
:101AA0000346009503F09EFC51E703F05FFC4EE710
:101AB0000060EA457047000090F85C1001290BD1E6
:101AC000022180F85C1001688A6922F001028A61B3
:101AD0000021016608467047016E41F0040101666D
:101AE00001207047704700007047000070470000F9
:101AF0007047000070470000704700002DE9F04F6C
:101B000083B00D68002D00F0C58000F138424FEA27
:101B1000B22241F200470192C4F6000706220026D5
:101B200000244FF0010AB84208BF0522009209E0E4
:101B30000D68043435FA0AF20AF1010A06F10206C8
:101B400000F0A880AAF1010C012202FA0CFB15EAB0
:101B50000B09EDD0D1F8048008F00305A5F1010EC2
:101B6000BEF1010F11D887680322CB68B24027EA83
:101B70000202B3401A4382604268C8F3001322EAAB
:101B80000B0203FA0CF31A434260032D1CD0C26807
:101B900003238F68B3409A4307FA06F31A43022DD2
:101BA000C26011D16FF0030202EA5C02024404F049
:101BB0001C070F23D2F820E003FA07F50B692EEA81
:101BC0000505BB402B431362026803234F68B340F3
:101BD0009A4307F00303B3401A4317F4403F0260EF
:101BE000A6D041F26003C4F202031A6840F2004E2C
:101BF00042F001021A601A68C4F2010E02F00102FA
:101C00000292029A2CF003024FF608487244CFF673
:101C1000FF7852F8083004F00C070F25BD4023EA86
:101C2000050C019B009D052B38BF1D4605FA07F7E3
:101C300047EA0C0342F80830DEF808204B6842EA15
:101C4000090740F20C4CDD0258BF22EA0907CEF822
:101C50000870C4F2010CDCF800209D0242EA09077A
:101C600058BF22EA0907CCF80070DEF804209D0373
:101C700042EA090758BF22EA0907CEF80470DEF8E5
:101C80000020DB0342EA090758BF22EA0907CEF821
:101C900000704DE703B0BDE8F08F00001823002A64
:101CA00008BF2823C150704740F64400C2F200002C
:101CB0000068704740F2100040F64401C2F2000094
:101CC000C2F2000100680A68104408607047000012
:101CD00080B5032000F068F80F2000F009F8002814
:101CE0001CBF012080BD00F02FF8002080BD000047
:101CF000B0B540F21001C2F20001096801B3044618
:101D000040F20000C2F200004FF47A720068B2FBA9
:101D1000F1F1B0FBF1F001F031F90F2C4FF00105BA
:101D20000CD858B94FF0FF3021460022002500F0B2
:101D30002BF840F21400C2F2000004602846B0BD47
:101D400001252846B0BD000080B582B041F25800A0
:101D5000C4F20200816841F001018160816801F0F4
:101D6000010101910199016841F080510160006811
:101D700000F080500090009800F08CF802B080BD18
:101D800080B503F029FC80BD70B514460D460646AB
:101D900003F032FC2946224601F0E0FF01463046BE
:101DA00003F032FC70BD000080B503F03FFC80BD45
:101DB000A8B347F20001C4F200010A68B0F5007F41
:101DC00061D1D1F8800002F4C06240F48070B2F5B5
:101DD000806FC1F8800020D10868012262F34A2098
:101DE000086040F20000C2F200000068322358434D
:101DF0004DF68363C4F21B33A0FB030302EB934055
:101E00004B69421E824203D213F480601046F7D120
:101E10004869400544BF032070470020704747F2DF
:101E20000000C4F200000168D0F8802001F4C06115
:101E300022F48072B1F5806FC0F88020EDD1016886
:101E4000012262F34A21016040F20001C2F2000166
:101E50000968322359434DF68363C4F21B33A1FB57
:101E6000031302EB934100BF43694A1E8A4203D227
:101E700013F480611146F7D14069400544BF032047
:101E8000704700207047022060F34A220A60002059
:101E90007047000047F20800C4F20000016841F4F6
:101EA00080410160704700002DE9F04381B0044695
:101EB000807841F288070007C4F2020702D44FF08D
:101EC00000096FE057F8300CC0000ED457F8300C02
:101ED0004FF0010840F0805047F8300C57F8300CB4
:101EE00000F080500090009801E04FF0000847F2A9
:101EF0000006C4F20006306840F480703060FFF7DE
:101F0000D3FE05463068C0050AD4FFF7CDFE401B5E
:101F10000328F7D34FF00309B9F1000F39D104E0DA
:101F20004FF00009B9F1000F33D1B86810F44070D8
:101F300011D0216D88420BD0B868B96820F4407088
:101F400041F48031B960B96821F48031B960B8607A
:101F5000C00703D112E00020C0070FD0FFF7A4FE96
:101F6000064641F2893500BFB868800706D4FFF7FE
:101F70009BFE801BA842F7D34FF00309B9F1000F75
:101F800007D1B868216D20F4407008434FF0000974
:101F9000B860B8F1000F05D057F8300C20F0805031
:101FA00047F8300C2068C10716D181071CD44107BF
:101FB00022D4010728D4C1062ED4810634D4410688
:101FC0003AD4010640D4C10546D481034CD48105DE
:101FD00052D4410558D466E03968626821F00301A3
:101FE000114339608107E2D53968A26821F00C01FC
:101FF000114339604107DCD53968E26821F03001CE
:10200000114339600107D6D53968226921F0C00132
:1020100011433960C106D0D53968626921F4407135
:10202000114339608106CAD53968A26921F440613B
:10203000114339604106C4D53968E26921F4405141
:10204000114339600106BED53968226A21F4404146
:1020500011433960C105B8D53968626A21F440314D
:10206000114339608103B2D57969A26A21F0030175
:10207000114379618105ACD53968E26A21F44021C8
:102080001143396041050ED53968226B21F44011A6
:102090001143B2F5801F396005D157F87C1C41F41B
:1020A000801147F87C1C01050ED53968626B21F45C
:1020B00040011143B2F5800F396005D157F87C1CFF
:1020C00041F4801147F87C1CC1040ED53968A26B1D
:1020D00021F040711143B2F1807F396005D157F88A
:1020E0007C1C41F4801147F87C1C81040ED53968B2
:1020F000E26B21F040611143B2F1006F396005D10C
:1021000057F87C1C41F4801147F87C1C41040ED523
:102110003968226C21F040611143B2F1006F3960DF
:1021200005D157F87C1C41F4801147F87C1C010450
:102130000ED53968626C21F040511143B2F1805FD5
:10214000396005D157F87C1C41F4803147F87C1C7C
:10215000C1030ED53968A26C21F040411143B2F1A0
:10216000804F396005D157F87C1C41F4803147F825
:102170007C1C40030ED57869E16C20F440100843C4
:10218000B1F5001F786105D157F87C0C40F4801040
:1021900047F87C0C484601B0BDE8F0832DE9F047D4
:1021A000002800F0C88042F2000AC4F2020A044685
:1021B000DAF800000D4600F00F0088420DD2DAF880
:1021C000000020F00F002843CAF80000DAF80000F1
:1021D00000F00F00A84240F0AE80207841F20808DD
:1021E000C007C4F202080CD14FF000092068810733
:1021F00028D4B9F1800F3ED1D8F8000020F0F000CB
:1022000037E06168032940F08A8058F8080C8001A3
:1022100040F1918001F0BAFD4BF20041C0F2C4419F
:1022200088420CD9D8F8000010F0F00F00F08F8031
:102230002078800703D5A068002800F088804FF040
:1022400000098DE0410705D5D8F8001041F4E061A0
:10225000C8F80010000706D5D8F80000072161F380
:102260000D20C8F80000D8F80000A16820F0F000A8
:102270000843C8F80000DAF8000000F00F00A84298
:102280001AD9DAF8000020F00F002843CAF800003D
:10229000FFF70AFD064641F2883700BFDAF8000072
:1022A00000F00F00A84207D0FFF7FEFC801BB842E9
:1022B000F4D90320BDE8F0872068410707D5D8F896
:1022C0000010E26821F4E0611143C8F80010000733
:1022D00008D5D8F80000216920F4605040EAC10018
:1022E000C8F8000000F08AF8D8F8001046F6083266
:1022F000C1F30311C0F60002515C40F2000201F08C
:102300001F0120FA01F140F21400C2F2000000683F
:10231000C2F200021160FFF7EBFCBDE8F08758F84D
:10232000080C022905D180035CBF0120BDE8F087BD
:1023300004E0400502D40120BDE8F08700F05EF81B
:102340004BF20041C0F2C44188427FF678AFD8F822
:102350000000082161F307104FF08009C8F8000061
:10236000D8F80000616820F003000843C8F80000B6
:10237000FFF79AFC064641F2883700BFD8F8000004
:10238000616800F00C00B0EB810F3FF42FAFFFF756
:102390008BFC801BB842F1D90320BDE8F087000018
:1023A00040F20000C2F200000068704780B5FFF7FD
:1023B000F7FF41F20801C4F20201096846F618323B
:1023C000C1F30221C0F60002515C01F01F01C840B8
:1023D00080BD000080B5FFF7E3FF41F20801C4F2C1
:1023E0000201096846F61832C1F3C221C0F60002A4
:1023F000515C01F01F01C84080BD000041F20C019A
:10240000C4F2020151F8040C42F20042C0F2F4029C
:1024100000F00C000428104608BF704751F8040C67
:1024200000F00C00082847F64000C0F27D1021D0D3
:1024300051F8043C03F00C030C2B1CBF0020704728
:10244000D1F800C00B680CF0030CC3F30313BCF10C
:10245000030F08BF024608680133B2FBF3F2C0F372
:10246000062009685043C1F34161022202EB410199
:10247000B0FBF1F0704700002DE9F04182B0002878
:1024800000F0EB800446007841F20006C007C4F279
:10249000020654D12078800771D42078000700F11B
:1024A00095802078400700F1B3802078800600F105
:1024B000D880E569002D00F01A82B06800F00C00A9
:1024C0000C2840F03B81012D00F0C780F068216AA4
:1024D00000F003028A4240F0C080626A6FF00F038E
:1024E00000F0F00103EB0212914240F0B680A16AC5
:1024F00000F4FE42B2EB012F40F0AF80E16A00F041
:102500007842B2EBC16F40F0A880226B0023CFF677
:10251000E07303EA025200F4C001A2F500129142F6
:1025200040F09B80616B4FF07E4202EA016100F057
:10253000C06001F17E41884240F08F80D7E1B068F1
:1025400000F00C01F068082959D0032281F00C0139
:1025500022EA00000844B0FA80F040094FD16568D3
:10256000B5F5803F07D03068B5F5A02F40F0108159
:1025700040F480203060306840F480300EE1B06874
:10258000F16800F00C00042851D001F0030180F044
:102590000C0081F002010844B0FA80F0400946D1F5
:1025A000E1683068002900F0B68040F48070306047
:1025B000FFF77AFB054600BF3068400500F1E08078
:1025C000FFF772FB401B0228F6D932E16169D6F8A9
:1025D0009400002900F08C8040F00100C6F89400BF
:1025E000FFF762FB054600BFD6F8940080073FF571
:1025F00058AFFFF759FB401B0228F5D919E13068A5
:1026000080037FF547AF606800287FF443AF24E084
:10261000B06DC00041D4B06D4FF0010840F0805063
:10262000B065B06D00F080500190019837E03068DF
:10263000400501D5E06880B17068216920F0FE4056
:1026400040EA0160706040F21400C2F200000068CD
:10265000FFF74EFB00283FF420AF012002B0BDE899
:10266000F081A169D6F89800002900F0B38040F00D
:102670000100C6F89800FFF717FB0546D6F898004A
:1026800080073FF516AFFFF70FFB401B02284FF006
:102690000300F3D902B0BDE8F0814FF0000847F223
:1026A0000007C4F200073868C00510D4386840F449
:1026B00080703860FFF7F8FA054600BF3868C0053B
:1026C00005D4FFF7F1FA401B0228F7D9B1E0A5685D
:1026D000012D08D0D6F89000052D40F0908040F0F4
:1026E0000400C6F89000D6F8900040F001008EE09B
:1026F00020F00100C6F89400FFF7D6FA054600BFA7
:10270000D6F8940080077FF5CCAEFFF7CDFA401BDA
:102710000228F5D98DE020F480703060FFF7C4FA0C
:10272000054600BF306840057FF5B7AEFFF7BCFA3D
:10273000401B02284FF00300F4D9ABE7306820F0CB
:1027400080703060FFF7B0FA022D05460CD100BF53
:102750003068800140F18780FFF7A6FA401B02280D
:102760004FF00300F4D995E73068800140F1B8805C
:10277000FFF79AFA401B02284FF00300F4D989E7CB
:102780007068216920F0FE4040EA0160706084E6D4
:1027900020F480303060306820F480203060FFF713
:1027A00083FA002D054611D0306880033FF572AEE4
:1027B000FFF77AFA401B6428F6D93AE0FFF774FA7B
:1027C000401B64284FF003003FF664AF306880037D
:1027D000F4D45FE620F00100C6F89800FFF764FA31
:1027E000054600BFD6F8980080077FF562AEFFF778
:1027F0005BFA401B02284FF00300F3D94AE720F0B0
:102800000100C6F89000D6F8900020F00400C6F849
:102810009000FFF749FA002D054641F2883715D0A0
:10282000D6F89000800715D4FFF73EFA401BB84257
:10283000F6D9032002B0BDE8F08100BFFFF734FAFB
:10284000401BB8424FF003003FF624AFD6F890008B
:102850008007F3D4B8F1000F3FF427AEB06D20F03D
:102860008050B06521E6F06848F20C01C0F29F117B
:1028700004F1200700EA010C8ECF6FF00F00D4E9BD
:102880000C5400EB02100022CFF6E07241EA0C017A
:1028900002EA05520843A2F500124FF07E4540EAD5
:1028A000032005EA0465104305F17E4540EAC76050
:1028B0002843F060306840F080703060F06840F08D
:1028C0008070F060FFF7F0F90446306880010ED4A4
:1028D000FFF7EAF9001B02284FF00300F5D9D9E60B
:1028E000F0684FF6FC71CFF6EE610840F060002012
:1028F00002B0BDE8F081000070470000B0B582B0C2
:1029000004460068416882684B0605D502F0410321
:10291000012B01D1E16C05E00B0607D512F0020393
:1029200004D0216D2046884702B0B0BD8B0666D525
:1029300012F4B07363D012F0400317D094F85D30F6
:10294000032B08D100210191C16801918068019099
:10295000019802B0B0BD236E43F004032366002348
:102960000193C368019383680193019B12F02003D4
:1029700002F480720CD0236E43F00103236600231F
:10298000019383680193036823F040030360019B74
:1029900042B1226E42F00802226600220192826851
:1029A0000192019A226E52B34268890722F0E00236
:1029B00042604FF0010284F85D201DD0416843F66B
:1029C000F55521F003014160A06DC0F6000538B156
:1029D0008563FEF7D7FA18B1206E40F040002066FC
:1029E000606D60B18563FEF7CDFA40B1206E40F0B6
:1029F0004000206602B0B0BD2046FFF77DFF02B068
:102A0000B0BD0000002804BF01207047B0B50446E7
:102A1000406A20B10020206104F1140005E06068E4
:102A2000B0F5827F03D004F11C0000210160002575
:102A3000A56294F85D0020B9204684F85C5000F04F
:102A400053F8022084F85D002068D4F80CE0026896
:102A5000BEF5E06F22F0400202604EF4006298BFC3
:102A60000125B2F5706F1CBF0023A3624FEA053C3D
:102A7000D4E90135D4E9042103F4827305F4044553
:102A80002B4402F002021A44A36901F00101E56936
:102A9000114403F40072114405F03802256A114410
:102AA00005F08002A56A114405F40052114301604B
:102AB0000421626A0EF4706501EA1341636B45EA12
:102AC0000C0502F01002294303F0080311431943D7
:102AD0004160C16921F40061C161002001212066CB
:102AE00084F85D10B0BD000070B586B00026CDE959
:102AF0000466CDE902660446006843F60001C4F2AC
:102B00000001884201962BD043F20001C4F201017A
:102B100088426ED141F24C00C4F20200416941F496
:102B200080514161416901F480510091009901682F
:102B300041F001010160006801A900F0010000906E
:102B40000098E0200190022002900020CDE90300CF
:102B5000052005904FF09040FEF7D0FF232440E081
:102B600041F24C00C4F20200C16841F48041C160EE
:102B7000C16801F4804100910099016841F00201AF
:102B80000160006801A900F00200009000984FF475
:102B9000204001900220CDE902060520059040F278
:102BA0000040C4F600000496FEF7A8FF40F2F4359A
:102BB0000820C2F20005C4F202000D211022802379
:102BC00085E847002846C5E90436C5E906662E6251
:102BD000FEF76CFA002818BFFEF7F8F86565AC62DE
:102BE0002424204600210022FFF7CEF82046FFF7DC
:102BF000C7F806B070BD00002DE9F04381B01E4655
:102C000015460F460446FFF74FF894F85D108146CD
:102C1000012908D1002F4FF0010018BF002D0ED15F
:102C200001B0BDE8F0836068B0F5827F0DD1042962
:102C30004FF00200F4D1A1680029EBD0F0E7002E9C
:102C4000EED094F85C00012803D1022001B0BDE869
:102C5000F083012084F85C0094F85D0004281CBF18
:102C6000052084F85D00002020662564A4F84660F5
:102C7000A4F84460A763E687A687C4E91300206828
:102C8000E1684268B1F5E06F22F480552B4698BFA9
:102C900042F48053012E88BF2B46436002685206DF
:102CA00003D4026842F0400202606268731EB2FA06
:102CB00082F2B3FA83F3DDF8208052095B09B1F5A3
:102CC000E06F43EA02013DD939B1A16B0988C160C7
:102CD000B81CA063E08F0138E087012608F10105E8
:102CE000E08F20B9B4F84600002800F0A1802068E9
:102CF000816889070CD5E18F012E09D141B1A16B03
:102D0000002631F8022BC260A163E18F0139E1870F
:102D10008168C9070DD0B4F8461051B1C068216C64
:102D2000012621F8020B2164B4F846000138A4F80A
:102D30004600FEF7B9FF002DD2D0A0EB09004045B8
:102D4000CED36BE099B1E18F022905D337F8022B7E
:102D50004FF6FE71C26006E039780173A06B471C24
:102D60006FF00100411CA763E08F0844E087012653
:102D700008F10105E08F18B9B4F84600002857D0D3
:102D800020688168890717D5E18F012E14D199B188
:102D9000E28FA16B022A06D331F8022BC260A16335
:102DA000E08F023806E009780173A06B0130A06360
:102DB000E08F01380026E08720688168C90725D0A8
:102DC000B4F8461011B3B4F84610022912D3C16802
:102DD000226C22F8021B2264B4F846100239A4F8CF
:102DE0004610B4F8461001290FD8416841F48051CB
:102DF00041600AE0007B216C0870206C0130206487
:102E0000B4F846000138A4F846000126FEF74CFF4E
:102E1000002DAFD0A0EB09004045ABD3012084F8D2
:102E20005D00002084F85C00032001B0BDE8F08361
:102E3000204641464A4601F037F840B1202020663E
:102E4000002084F85C00012001B0BDE8F08301207F
:102E500084F85D00002084F85C00206E002818BF14
:102E6000012001B0BDE8F083B0B5044690F85D00E4
:102E700001280AD100294FF0010018BF002A00D113
:102E8000B0BD94F85C00012801D10220B0BD012042
:102E900084F85C000320002384F85D002366A163AE
:102EA000A287E2872364C4E91333A4F84430A4F86A
:102EB0004630A068B0F5004F08D12068016821F0C5
:102EC00040010160016841F480410160606D43F69A
:102ED0002D6C43F6396E43F609652268C0F6000C86
:102EE000C0F6000EC0F60005E168C0E90BECC0E9D1
:102EF0000D535368B1F5E06F23F48043536015D848
:102F00008169B1F5806F11D1E38F5168DB0705D17D
:102F100021F480415160E18F490806E041F480418D
:102F20005160E18F012303EB5101E187A16BE38F36
:102F30000C32FEF727F940B1206E40F010002066F9
:102F4000002084F85C000120B0BD216808684006BC
:102F500003D4086840F040000860002084F85C005A
:102F60004A6842F020024A604A6842F002024A601F
:102F7000B0BD0000704700007047000080B501F050
:102F800085F880BD70470000704700007047000062
:102F900070470000704700007047000070B590F85F
:102FA0003C20012A4FF0020264D0012380F83C301B
:102FB00080F83D20026842F600435468D2F808C009
:102FC000C4F2010345F2000E9A42C4F2010E18BF8A
:102FD00072452AD14D6824F470042C434FF68F7546
:102FE000CFF6FF550E682C4042F6FF35C4F20105BE
:102FF0003443AA4254600DDC40F2FF73C4F2000374
:103000009A4219DCB2F1804F29D040F20043C4F259
:10301000000322E043F6FF74C4F20104A24216DC6E
:103020009A421CD043F2004315E043F20045C4F23B
:103030000105AA42CED0D1E740F60003C4F2000356
:103040009A420CD040F60043C4F2000305E07245FA
:1030500005D044F20003C4F201039A4204D1896806
:103060002CF08003194391600121002280F83D106B
:1030700080F83C20104670BD70470000002804BF57
:103080000120704710B5044690F83D0028B9002093
:1030900084F83C00204600F023F8022084F83D002C
:1030A0002068211D01F0CAF8012084F8480084F846
:1030B0003E0084F83F0084F8400084F8410084F822
:1030C000420084F8430084F8440084F8450084F802
:1030D000460084F8470084F83D00002010BD000041
:1030E00010B584B0006844F60001C4F201018842C2
:1030F0001AD041F20041C4F20001884223D041F2CB
:103100000001C4F20001884233D141F25800C4F2F8
:1031100002000168362441F010010160006800F0EF
:103120001000039003981CE041F25800C4F2020022
:1031300081681A2441F480218160806800F4802035
:10314000019001980DE041F25800C4F202000168BC
:10315000372441F020010160006800F02000029057
:103160000298204600210022FEF70EFE2046FEF7C0
:1031700007FE04B010BD000090F83D1001291CBFEF
:1031800001207047022180F83D10016842F6FF32AD
:10319000C868C4F20102914240F00100C8600DDC31
:1031A00040F2FF70C4F20000814216DCB1F1804FA2
:1031B0002AD040F20040C4F2000023E043F6FF7042
:1031C000C4F20100814213DC42F60040C4F2010067
:1031D000814219D043F2004012E040F60000C4F2F0
:1031E0000000814210D040F60040C4F2000009E027
:1031F00045F20000C4F20100814205D044F2000013
:10320000C4F20100814212D188680722C0F2010293
:103210000240062A4FF000000ED0B2F5803F08BFF2
:103220007047086840F00100086000207047086897
:1032300040F0010008600020704700007047000067
:10324000F0B581B004460068C768066906EA07055C
:10325000A90731D4680700F18580280700F19B8019
:10326000E80600F1B080E80706D020686FF00101A1
:103270000161204600F0C6F817F0800718BF16F469
:10328000025006D020686FF4025101612046FFF71A
:103290007BFE002F18BF16F4807019D1680620D469
:1032A000A80627D4E8022ED4A80235D468023CD45C
:1032B000280243D401B0F0BD6FF002010161012189
:1032C00021778069800742D02046FFF7B7FF44E0AE
:1032D00020686FF4807101612046FFF753FE680695
:1032E000DED520686FF040010161204600F08CF8C7
:1032F000A806D7D520686FF0200101612046FFF7AE
:1033000045FEE802D0D520686FF4801101612046A7
:10331000FFF740FEA802C9D520686FF400110161D3
:103320002046FFF735FE6802C2D520686FF48001A1
:1033300001612046FFF730FE2802BBD520686FF4FC
:10334000000101612046FFF797FE01B0F0BD204665
:1033500000F054F8204600F053F80020207768076A
:103360007FF57BAF20686FF00401016102212177B6
:10337000806910F4407F03D02046FFF75FFF05E02F
:10338000204600F03BF8204600F03AF80020207775
:1033900028077FF565AF20686FF0080101610421FF
:1033A0002177C069800703D02046FFF747FF05E07B
:1033B000204600F023F8204600F022F80020207775
:1033C000E8067FF550AF20686FF010010161082119
:1033D0002177C06910F4407F03D02046FFF72EFF0D
:1033E00005E0204600F00AF8204600F009F8002029
:1033F0002077E8077FF439AF3EE700007047000010
:1034000070470000704700007047000090F884107B
:10341000012904BF022070472421C0F888100268E7
:103420001168136823F00103136021F00053002199
:10343000416613602022C0F8882080F88410084676
:10344000704700007047000070470000B0B50446A8
:1034500090F88400012804BF0220B0BD012084F848
:1034600084002420C4F8880020680568026822F0DF
:1034700001020260826822F060621143816020468E
:1034800000F080FF206805602020C4F8880000203C
:1034900084F88400B0BD0000B0B5044690F8840004
:1034A000012804BF0220B0BD012084F8840024203C
:1034B000C4F8880020680568026822F001020260F2
:1034C000826822F0604211438160204600F05AFF7A
:1034D000206805602020C4F88800002084F884005B
:1034E000B0BD00007047000070470000704700004A
:1034F00070B503680446D96940F62F001E68D3F8FA
:1035000008E0084020280CD106F020000EF0805280
:10351000801806D0616F002900F0AE8020468847F1
:1035200070BD40F60F00084000F08E800120C1F20F
:1035300000000EEA000C40F22010C0F200403040C3
:1035400010EB0C0000F08080C80718BF16F48070E4
:1035500007D001201862D4F8900040F00100C4F8B0
:10356000900088070EF0010208D53AB102201862D7
:10357000D4F8900040F00400C4F89000480708D543
:103580003AB104201862D4F8900040F00200C4F868
:10359000900008070CD506F0200050EA0C0007D078
:1035A00008201862D4F8900040F00800C4F8900099
:1035B00008050BD516F0806008D04FF40060186243
:1035C000D4F8900040F02000C4F89000D4F89000A7
:1035D000002851D011F020001EBF06F020000EF090
:1035E000805110EB010040F0FE802068D4F890106C
:1035F000806801F0280100F04000401800F0EC80E5
:10360000204601F017F820688068400640F1C98024
:10361000206850E8020F216820F0400041E80202D3
:10362000002AF5D1D4F88000002800F0BA8044F2D6
:103630008151C0F600018163FDF7A4FCE0B1D4F82C
:103640008000816B884770BDE06E06EA0102D506F6
:103650003FD501283DD1102018629868400644D417
:10366000B4F85C00B4F85E10B4F85E20002A1CBF09
:10367000401A5FEA004101D170BD00BF216851E8E6
:10368000001F226821F4907142E80013002BF5D14D
:103690004FF6FE71CEF6FF71226852E8022F2368C2
:1036A0000A4043E80226002EF6D12021C4F88C10EF
:1036B0000021E166616700BF216851E8001F2268B0
:1036C00021F0100142E80013002BF5D102212167FF
:1036D00055E0C80258D51EF4800055D04FF4801034
:1036E00018622046FFF700FF70BDD4F88000006824
:1036F00041688AB2002A58D0B4F85C309A4254D259
:10370000A4F85E100068800632D400BF206850E83C
:10371000000F216820F4807041E80002002AF5D1F2
:10372000206850E8020F216820F0010041E8020201
:10373000002AF5D1206850E8020F216820F04000EF
:1037400041E80202002AF5D12020C4F88C000020B4
:10375000E06600BF206850E8000F216820F01000EC
:1037600041E80002002AF5D1D4F88000FDF7D2FB31
:1037700002202067B4F85C00B4F85E10401A81B2F1
:103780002046FFF75FFE70BD08061AD506F08000E0
:103790000EF40003C01814D0A16F00297FF4BEAE50
:1037A0006AE72046FFF7A2FE70BDB4F85C109142B4
:1037B0007FF462AF006880067FF55EAF022020676D
:1037C000DEE7500616D4080218D516F0804015D052
:1037D0002046FFF787FE70BD2046FFF787FE0020DA
:1037E000C4F8900070BD616F00293FF4FEAE204622
:1037F0008847FAE6204600F04BFF70BDC8017FF510
:103800003BAFB6F1FF3FC8BF70BD2046FFF71CFEBF
:1038100070BD000010B5D8B10446D0F8880028B9B2
:10382000002084F88400204600F026F82420C4F804
:1038300088002068A16A026822F00102026011B1CA
:10384000204600F0C9FD204600F04EFF012801D1BE
:10385000012010BD2068416821F4904141608168D9
:1038600021F02A018160016841F0010101602046D8
:1038700000F026FE10BD000070B59CB00446002587
:1038800002A854211B95CDE91955CDE91755FCF730
:103890003AFE206844F60001C4F20001884201D0DB
:1038A0001CB070BD0420029002A80595FEF7FCFA3A
:1038B000002818BFFDF78AFA41F24C00C4F202005A
:1038C000C168002641F48021C160C16801F48021F3
:1038D00001910199016841F002010160006817A996
:1038E00000F00200019001984FF440601790022010
:1038F00018900720CDE919661B9040F20040C4F6ED
:103900000000FEF7FBF840F254451C20C2F200050F
:10391000C4F202001D211022802385E847002846BA
:10392000C5E90436C5E906662E62FDF7BFFB00282F
:1039300018BFFDF74BFA272000210022E567AC6293
:10394000FEF722FA2720FEF71BFA1CB070BD00001C
:1039500010B50446D0F8880020281CBF022010BDF6
:1039600061B3134652B3216500212120A4F85430DD
:10397000A4F85630C4F89010C4F88800E06FF8B18D
:1039800044F2E552C0F60002C262226844F2296C99
:1039900044F2915E8163216DC0F6000CC0F6000E0A
:1039A0002832C0F830C0C0F834E0FDF7EBFB38B186
:1039B0001020C4F890002020C4F88800012010BD19
:1039C00020684021016200BF206850E8020F216892
:1039D00040F0800041E80202002AF5D1002010BD2D
:1039E0007047000070470000FEE7000080B582B01D
:1039F00041F24800C4F202000168002241F00401D3
:103A00000160016801F0040101910199016841F030
:103A1000010101600068002100F0010000900098A1
:103A20000B20FEF7B1F90B20FEF7AAF90C200021BC
:103A30000022FEF7A9F90C20FEF7A2F902B080BD22
:103A400080B540F2B44046F20041C2F20000C4F238
:103A500000010022C0E900121021012300F1140727
:103A6000C0E90222C0F80F204FF0040C4FF0050E01
:103A700087E80A50C0E90933C0E90B33C0E90D22D9
:103A8000C263FDF7EFFD002818BFFDF79FF980BD69
:103A900080B540F2185046F60001C2F20000C4F2B0
:103AA00000010022C0E900121021012300F11407D7
:103AB000C0E90222C0F80F204FF0040C4FF0050EB1
:103AC00087E80A50C0E90933C0E90B33C0E90D2289
:103AD000C263FDF7C7FD002818BFFDF777F980BD69
:103AE000B0B586B0002441F24C000594CDE9034402
:103AF000CDE90144C4F202000168002241F0200136
:103B000001600168102501F0200100910099016811
:103B100041F001010160016801F00101009100998B
:103B2000016841F0020101600068102100F002000C
:103B3000009000984FF09040FEF7B0F801200195FA
:103B4000CDE9020401A94FF090400494FDF7D6FF9F
:103B500006B0B0BDB0B540F27C5043F20001C2F2F5
:103B60000000C4F201014FF4827200234FF4706C24
:103B70004FF0010E4FF40074302580E80E1007213D
:103B8000C0E9043EC0E90645C0E90833C0E90A318E
:103B9000C0E90C33FEF736FF002818BFFDF716F911
:103BA000B0BD000010B540F2E05043F60001C2F293
:103BB0000000C4F200014FF4827200234FF4E06C65
:103BC0004FF4007E182480E80E1007210822C0E977
:103BD0000433C0E906E4C0E90833C0E90A31C0E9AA
:103BE0000C32FEF70FFF002818BFFDF7EFF810BDED
:103BF00080B540F2446044F60001C2F20000C4F215
:103C0000010100234FF0800E9F2241F2873C80E8A3
:103C10000E10C0E90433C0F818E0FFF72FFA0028AF
:103C200018BFFDF7D3F880BD10B584B040F29060A6
:103C300041F20001C2F20000C4F2000100249F2200
:103C400040F69F7380E8160080210394CDE901447B
:103C5000C3608161FFF712FA002818BFFDF7B6F8BC
:103C600040F29060C2F2000001A901940394FFF7B2
:103C700095F9002818BFFDF7A9F804B010BD0000A1
:103C800010B584B040F2DC6041F200410024C2F281
:103C90000000C4F2000140F69F730394CDE9014493
:103CA0009F2280E81600C3608461FFF7E7F90028CF
:103CB00018BFFDF78BF840F2DC60C2F2000001A9EA
:103CC00001940394FFF76AF9002818BFFDF77EF806
:103CD00004B010BD80B540F2287044F60001C2F275
:103CE0000000C4F2000100234FF00C0C4FF46132CD
:103CF00080E80E00C0E90333C0E905C3C0E907331B
:103D0000C0E90933FFF786FD002818BFFDF75EF80C
:103D100040F22870C2F200000021FFF7BDFB00282E
:103D200018BFFDF753F840F22870C2F200000021DE
:103D3000FFF78CFB002818BFFDF748F840F2287009
:103D4000C2F20000FFF762FB002818BFFDF73EF843
:103D500080BD0000FEE70000FEE7000000F0070065
:103D600080F00703042B28BF04234FF0FF3C0338E7
:103D70000CFA03F338BF0020994381400CFA00F09D
:103D800022EA0000084370477047000041F20C002F
:103D9000C4F202000168026842F2004301F003012C
:103DA000C0F2F403C2F30312032904BF47F6400331
:103DB000C0F27D1301680132B3FBF2F2C1F30621B8
:103DC00000685143C0F34160022202EB4000B1FBA6
:103DD000F0F0704780B540F27C50C2F20000FEF770
:103DE0008DFD80BD80B540F2E050C2F20000FEF7CC
:103DF00085FD80BD80B5806A0021A0F84610C1878E
:103E0000FEF77AFD80BD000080B5806A01684A68CF
:103E100022F003024A60016E41F0100101660121A7
:103E200080F85D10FEF768FD80BD000080B5806AF7
:103E3000FFF7A2F880BD0000B0B582B0846A0546E5
:103E4000FDF732FF29680968890628D402462068F0
:103E5000416821F020014160416821F00201416088
:103E60002046642100F020F818B1206E40F02000B8
:103E70002066A06838B9002001902068C1680191CF
:103E80008068019001980020E087012084F85D009F
:103E9000206E20B12046FEF72FFD02B0B0BD2046B7
:103EA000FFF768F802B0B0BD70B515460E464FF486
:103EB000C05132462B46044600F018F868B9204637
:103EC00031462A4600F086F838B920464FF4C061E2
:103ED00032462B4600F00AF828B1206E40F0200050
:103EE0002066032070BD002070BD00002DE9F04F5A
:103EF00083B04FF000091E4690460D4683468DF86C
:103F00000790FDF7D1FE301A00EB0807FDF7CCFE55
:103F100040F20001C2F20001096823225143090D59
:103F2000DBF800A079430291DAF8081029424DD05D
:103F3000064608F1010404E0DBF80000806828422E
:103F400017D0B5F5C06F05D19AF80C008DF80700B1
:103F50009DF80700002CEFD0FDF7A6FE801BB842AD
:103F60000AD202980299002808BF0746481E02900C
:103F7000E2E74FF0000929E0DBE900014268B1F512
:103F8000827F22F0E00242600BD1DBF80810B1F52D
:103F9000004F02D0B1F5806F03D1016821F04001DC
:103FA0000160DBF82810B1F5005F07D1016821F44A
:103FB00000510160016841F40051016001208BF85B
:103FC0005D0000208BF85C004FF00309484603B009
:103FD000BDE8F08FF0B581B015460E460446FDF7FA
:103FE00063FE281A8719FDF75FFE40F20001C2F256
:103FF00000010968C1F3CB317943009121688968D8
:10400000090602D4002001B0F0BD0546013603E0E8
:10401000206880680006F5D5002EF9D0FDF744FE33
:10402000401BB84207D200980099002808BF0746F5
:10403000481E0090ECE7D4E900014268B1F5827FA8
:1040400022F0E00242600AD1A168B1F5004F02D02F
:10405000B1F5806F03D1016821F040010160A16AD0
:10406000B1F5005F07D1016821F4005101600168DA
:1040700041F400510160012084F85D00002084F8C3
:104080005C00032001B0F0BD70470000B0B50138FE
:104090000024B4EB106F1CBF0120B0BD4EF2100520
:1040A000CEF2000568604FF0FF300F2101F0ACFA4E
:1040B0000720AC6028602046B0BD000080B5FDF749
:1040C000F9FD80BD4EF68850CEF20000016841F443
:1040D000700101607047000080B540F63400C2F204
:1040E0000000006840F62C01C2F20001002840F6F2
:1040F00040000968C2F20000D8BF0021016040F210
:104100004460C2F20000FFF79BF880BD0000000091
:1041100080B582B040F63400C2F200000168043974
:10412000016040F20C01C2F2000100200988ADF8E4
:1041300006000DF1060000F0E7FDBDF8060040F2B4
:10414000E431C2F20001086002F012FA9FED0E0B9A
:1041500053EC102B02F020FA9FED0D0B53EC102BBB
:1041600002F01AFA01F08CFF40F2EC31C2F20001C9
:10417000086040F29060C2F20000FFF761F802B000
:1041800080BD00BF00BF00BF000000000000103F66
:10419000000000000080764010B52DED048B86B045
:1041A00040F2EC30C2F20000006802F0DDFB41ECAE
:1041B000180B40F20400C2F20000006802F0D4FBC9
:1041C00041EC190B40F63C00C2F20000006802F01E
:1041D000B8F99FED130B53EC102B02F02BF840F6BF
:1041E000480441EC100BC2F200040FA2204620212B
:1041F0008DEC048B8DED040BFCF7E4F840F2287095
:10420000C2F2000021462022FFF7A2FB40F2DC6050
:10421000C2F20000FFF714F806B0BDEC048B10BD2D
:104220000000000000C07240643A252E31662C2543
:104230002E31662C252E31660A00000080B540F62E
:10424000FF330268C4F2000343F2FF3C9842C4F219
:10425000010C0ADD60452EDC40F60043C4F2000389
:10426000984234D042F600432DE0B0F1804F2ED07A
:1042700040F20043C4F20003984228D040F6000305
:10428000C4F20003984222D0604526DC40F2FF735E
:10429000C4F20003984235DD40F60003C4F2000387
:1042A000984243D040F60043C4F2000398423DD008
:1042B00042F6004336E045F20003C4F2010398429F
:1042C00005D043F20043C4F201039842DCD14B68AD
:1042D00022F070021A436045D8DD44F2FF33C4F285
:1042E0000103984216DD44F20043C4F201039842F0
:1042F0001CD045F20003C4F20103984216D044F6E4
:1043000000030FE0B0F1804F10D040F20043C4F240
:10431000000309E043F20043C4F20103984205D0D0
:1043200044F20003C4F20103984203D1CB6822F4A3
:1043300040721A434B6922F0800E8A6843EA0E03EA
:10434000D1F800C00360C262A0F18042A2F59632AB
:104350004FEAB222092AC0F828C008D8012303FA7C
:1043600002F240F2E5231A421CBF096901630121F0
:1043700041610169C90708BF80BD016921F00101E0
:10438000016180BD80B5416E01B3016846F6483CCD
:104390008A68C0F6000CC2F34262896846F6503E55
:1043A000490F1CF80130C0F6000E1EF80110DB00AA
:1043B000B3FBF1F31CF802101EF80220C900B1FB98
:1043C000F2F1A0F86A30A0F8681080BD0121A0F8D1
:1043D0006A10A0F8681080BD80B5816A0A070CD405
:1043E000CA0715D18A071ED44A0727D4CA0630D473
:1043F0008A0639D44A0657D541E00268D0F838C059
:10440000536823F4004343EA0C035360CA07E9D01E
:104410000268D0F82CC0536823F4003343EA0C033D
:1044200053608A07E0D50268D0F830C0536823F49F
:10443000803343EA0C0353604A07D7D50268D0F8AB
:1044400034C0536823F4802343EA0C035360CA0644
:10445000CED50268D0F83CC0936823F4805343EA79
:104460000C0393608A06C5D50268D0F840C09368F3
:1044700023F4005343EA0C0393604A0614D5026800
:10448000D0F844C05368BCF5801F23F4801343EA7E
:104490000C03536008D1D2F804C0D0F848E02CF4E3
:1044A000C00343EA0E035360090658BF80BD01688C
:1044B000C06C4A6822F400221043486080BD0000AE
:1044C000B0B582B004460020C4F89000FDF7ECFBC4
:1044D00021680546096809071BD56FF07E4C204608
:1044E0004FF4001100222B46CDF800C000F06AFA0C
:1044F00078B100BF206850E8000F216820F08000EC
:1045000041E80002002AF5D12020C4F888000320E9
:1045100031E020680068400725D56FF07E4C2046CA
:104520004FF4800100222B46CDF800C000F04AFA7B
:10453000C8B100BF206850E8000F216820F49070D7
:1045400041E80002002AF5D1206850E8020F2168F6
:1045500020F0010041E80202002AF5D12020C4F831
:104560008C00032007E02020C4F88800C4F88C00E9
:104570000020E0662067002184F8841002B0B0BDFE
:1045800080B5806A0021A0F85E10FEF7AFFF80BD05
:10459000B0B5846A2068D4F88810D4F88C5080684C
:1045A000212908D110F0800005D00020A4F8560081
:1045B000204600F081F82068222D806808D110F094
:1045C000400005D00020A4F85E00204600F032F83C
:1045D000D4F8900040F01000C4F890002046FEF798
:1045E00085FFB0BD80B50168806A0968890618D466
:1045F0000021A0F8561000BF016851E8021F0268B0
:1046000021F0800142E80213002BF5D1016851E846
:10461000001F026841F0400142E80013002BF5D171
:1046200080BDFFF7DDF980BD80B5806AFFF7DAF95C
:1046300080BD0000016851E8001F026821F49071FC
:1046400042E80013002BF5D14FF6FE7CCEF6FF7C3E
:10465000026852E8022F036802EA0C0243E80221D2
:104660000029F5D1C16E01290AD100BF016851E8C6
:10467000001F026821F0100142E80013002BF5D161
:104680002021C0F88C100021C166416770470000EE
:1046900080B500BF016851E8001F026821F04001A9
:1046A00042E80013002BF5D12021C0F8881000212A
:1046B0008167FFF795F980BD016851E8001F026826
:1046C00021F0C00142E80013002BF5D1016851E848
:1046D000021F026821F4000142E80213002BF5D109
:1046E0002021C0F888107047F0B581B004462269D7
:1046F000D4E90213006867690A43E1693A4307682D
:1047000046F6F316CCF6FF760A4337403A4302608A
:1047100042684FF2FF4622F440521A43426048F288
:104720000002A369C4F2000290421CBF276A3B4307
:104730008768C1F2FF1637403B438360C36A676AEC
:1047400023F00F033B43C36244F6FF73C4F200033C
:1047500098424FF0100318DC44F20047C4F20007FF
:10476000B84227D044F60007C4F20007B84228D068
:1047700044F60047C4F20007B8423BD141F2880337
:10478000C4F202031B689B092FE045F20007C4F244
:104790000007B8421CD0904221D043F60007C4F273
:1047A0000107B84226D141F28803C4F202031B6814
:1047B00080A71BE041F28803C4F202031B689B0838
:1047C00013E041F28803C4F202031B681B090CE0EA
:1047D00041F28803C4F202031B681B0A05E041F2A0
:1047E0008803C4F202031B689B0A6EA703F003034D
:1047F00057F82330904242F20040C0F2F40011D04A
:10480000B1F5004F1DD1082B00F26F800025DFE8C5
:1048100003F00568766C6F6C6C6C73000025FDF717
:10482000C5FD6CE0082B1BD80027DFE803F0051955
:1048300020191D19191951000027FDF7B7FDB8B946
:104840004BE0082B00F281800025DFE803F0057AB9
:10485000887E817E7E7E85000025FDF7A7FD7EE0B7
:104860000020012720B938E00027FDF7C7FDA0B3DD
:10487000616A46F62032C0F6000232F811206668FE
:10488000B0FBF2F106EB460399424FF00105C0F090
:104890008080330399427CD800210023FBF71AFD66
:1048A000090241EA1061000210EB560041F10001DB
:1048B00032460023FBF70EFD4FF6FF42A0F5407194
:1048C000C0F20F0291420AD821683D46C86060E0FC
:1048D0004FF4004000270028CAD13D4659E0012589
:1048E00057E00025FDF776FD09E00020012506E0F0
:1048F0000025FDF783FD02E04FF40040002500286D
:1049000047D0616A46F62032C0F6000232F8111034
:104910006268B0FBF1F0510801EB4000B0FBF2F02F
:104920004FF6EF72A0F11001914208D84FF6F071E6
:104930000140C0F3420022680844D06029E001250C
:1049400027E00025FDF746FD09E00020012506E0EF
:104950000025FDF753FD02E04FF400400025C0B1F3
:10496000616A46F62032C0F6000232F81110626821
:10497000B0FBF1F000EB5200B0FBF2F04FF6EF723B
:10498000A0F11001914203D8216880B2C86000E014
:1049900001254FF001100021A06661672846A1673C
:1049A00001B0F0BD000000000400000002000000A3
:1049B00008000000010000000400000002000000E8
:1049C000080000002DE9F04381B004460068C0698A
:1049D0000840401AB0FA80F0400990423DD1DDF81D
:1049E000208015460E46994608F1010709E000BFF0
:1049F0002068C0693040801BB0FA80F04009A842AE
:104A00002FD1002FF4D0FDF74FF90146B8F1000F78
:104A10004FF0030026D0A1EB0901414522D82068C0
:104A200001684907E4D5402EE2D0802EE0D0C1696C
:104A300009071AD4C1690905DAD54FF4006101628A
:104A40002046FFF7F7FD2020C4F89000002084F8EE
:104A50008400032001B0BDE8F083002001B0BDE870
:104A6000F083002001B0BDE8F083082505622046F0
:104A7000FFF7E0FD0020C4F8905084F88400012086
:104A800001B0BDE8F083000080B540F22870C2F2AA
:104A90000000FEF72DFD80BDFEE7000080B500F0B0
:104AA000D5FD80BD80B54FF6FF7000F02BFB6FF396
:104AB0009F3080BD10B52DED028BB0EE401A90ED09
:104AC0000A0A90ED0B2A31EE403A22EE032A30EE2C
:104AD000020A90ED062A90ED033A30EE422A82EE69
:104AE000032A80ED0A0A90ED000A90ED014A90ED4C
:104AF000056A90ED025A20EE010A24EE064A0446A9
:104B000030EE040AD4ED080AF5EE400AF1EE10FA90
:104B100025EE022A30EE028A23EE010A36EE000A62
:104B200080ED050A806984ED061AE06103DD00F07E
:104B300009FD84ED050A2069B1EE480A002808BF86
:104B4000B0EE480ABDEC028B10BD00000000000072
:104B50002DE9F04F81B02DED0A8B86B0DDE91A58B2
:104B6000019010EE900AB0EE408A99469346029169
:104B700001F0FAFE9FED5A0B53EC102B01F05AFB9B
:104B80009FED590B06460C4651EC100B324623465E
:104B9000CDE9041001F0FEFD9FED550B002D53EC07
:104BA000102B04BF2146304601F0F6FC0446404677
:104BB0000E4601F0C6FC02460B462046314601F087
:104BC00091FA01F08FFCA0EB59040646012C4FEA44
:104BD000590A09DBA6EB0A05002700BF78B200F0EE
:104BE0002BF90137BD42F9D106EB0A051E2D07DC72
:104BF0001F2700BF013F78B200F01EF9AF42F9DC79
:104C0000AC4264DA484601F0B3FC9FED3B0B53EC39
:104C1000102B01F0C1FC039018EE100A0C4601F0B5
:104C2000A3FE804601989FED368A00EE100AB8EE8A
:104C3000409A0298894600EE100AB8EE40AA00EEAB
:104C400010BAB8EE40BACAF100054FEA4A0BB7EE07
:104C500000CA1AE020EE091ABDEEC11A11EE101AB0
:104C600020EE0A1A20EE0B0ABDEEC11ABDEEC00AF4
:104C700011EE102A10EE103A78B200F05DF901350D
:104C8000BBF1010BAAF1010A21D07719BAF1000F8B
:104C9000B0EE4C0ADED0504648BF284601F051FC29
:104CA000039A234601F0C6FA42464B4601F074FCD3
:104CB00002460B46DDE9041001F06CFD01F0E0F95D
:104CC00000EE100AF0EE480A00F032FCC2E706B02F
:104CD000BDEC0A8B01B0BDE8F08F00BF00BF00BF84
:104CE0000000000000807640000000000000F03F5F
:104CF0000000000000003F40000000000000E03F16
:104D0000CDCC4C3D0000000070B50D460446FFF7C9
:104D1000C9FE064640F2E830C2F2000006603046A6
:104D200001F026FC9FED0E0B53EC102B01F034FC30
:104D30009FED0D0B53EC102B01F02EFC01F0A0F9B0
:104D400040F2F031C2F20001086043F6FF70AE425B
:104D500038BF0644701B208070BD00BF00BF00BF7D
:104D6000000000000000103F0000000000807640BE
:104D70009FED0F1A30EEC00AB4EE410AF1EE10FAC0
:104D800007DC9FED0C2AB4EE420AF1EE10FAA8BF40
:104D90007047B4EE410AF1EE10FA04DD9FED071AF8
:104DA00030EE010A70479FED041A30EE010A704799
:104DB00000003443000034C30000B4430000B4C317
:104DC00080B540F2E05040F2FC01C2F20000C2F2B5
:104DD00000014FF44072FEF747F880BD90ED061ACF
:104DE00090ED075A31EE014A90ED022A30EE444A26
:104DF00090ED033A34EE054A22EE042A82EE032AAD
:104E000090ED005A90ED016A30EE414A25EE044AD9
:104E100026EE005A25EE033A34EE033A016980ED9E
:104E2000060A002933EE022AB1EE420A08BFB0EEAC
:104E3000420A80ED071A704710B51E2141F2850C19
:104E40001E28C8BF01465FFA81FEC0F6420CAEFBC9
:104E50000C32AEEB020302EB53021209A2EB421238
:104E600052FA81F2511A08441E2441B20029C8BFE7
:104E700000F11E04201AC1B2A1FB0C23C91A03EBD6
:104E800051010A095201A2EB1111081A204440B243
:104E900040F2FC0100EB4000C2F2000101EBC00255
:104EA0004FF0C03341F8303053611361D3609360E9
:104EB000536010BD098809BA090C018181817047CE
:104EC0002DE9F04790B040F27C04C2F200049FED5F
:104ED000171ADFED171A9FED172AE0626846B3EE46
:104EE000000AF1EE0E0AF5EE002A002100F0C4F8E7
:104EF0009DE80F500DF1180A9AE8E007E3630CAB48
:104F000020636163A263C4F840C00FCB04F1500C6E
:104F1000C4F844E0C4E912568CE8800704F1600C40
:104F20008CE80F0010B0BDE8F08700BFCDCC4C3D41
:104F30006F12833A0080BB45F0B54FF01E0C41F272
:104F400085071E28C8BF84465FFA8CFEC0F642075C
:104F5000AEFB0756AEEB060406EB54063609A6EB8D
:104F6000461656FA8CF6A6EB0C0630441E2546B2C1
:104F7000002EC8BF00F11E05281AC6B2A6FB077492
:104F8000371B04EB57073E097601A6EB1717381AB3
:104F9000284440B240F2FC0700EB4000C2F2000798
:104FA00007EBC00CACF1010E072000BF22FA00F4A1
:104FB000E4076FF00704A0F1010008BF6FF03F04A1
:104FC000451C0EF8014FF1D10CF10700072200BF7C
:104FD00021FA02F7FF076FF00707A2F1010208BFED
:104FE0006FF03F07561C00F8017FF1D10CF10F0064
:104FF000072100BF23FA01F2D2076FF00702A1F1E7
:10500000010108BF6FF03F024F1C00F8012FF1D1E2
:10501000F0BD000010B5B0F808E04FF09934A0F8EA
:105020000AE00A8812BA4FEA124CA0F808C04B886E
:105030001BBA1B0C438003808B88DBBA53FB04F341
:105040005C0804EBD37383808B79CEEB1241B1F50E
:10505000805F837102DD4FF0FF3103E011F5805F67
:1050600003DA0121026911440161016982890CEBB3
:105070004131891A416110BD002280EC040AC0E967
:10508000041244F6B52144F6DD5345F2994CC0F6BE
:105090000001C0F60003C0F6000CC0E9062280ED56
:1050A000082AC0E90922C0ED0B2AC0E90C21C0E999
:1050B0000E3C704780B582B04FF0000E1FFA82FCA4
:1050C0008BB2CDE900EE8DF801108DF8051040F29D
:1050D0007C014FEA132E4FEA1C23C2F200018DF827
:1050E00002308DF806304B6F8DF803208DF80720C5
:1050F000694608228DF800E08DF804E000F0AEF972
:1051000002B080BDB0B582B0ADF8060000254FF00A
:10511000904010210022ADF80450FCF7BFFD40F292
:105120007C504FF47A74C2F200000DF1060101AA1E
:1051300001230094FDF760FD00284FF090404FF0F0
:1051400010014FF0010218BFADF80450FCF7A6FDA6
:10515000BDF8040002B0B0BD2DE9F04F81B02DEDD7
:105160000A8B84B0DDE91858824610EE900AB0EE42
:10517000408A1C4691468B4601F0F6FB9FED500B92
:1051800053EC102B01F056F89FED4F0B06460F46DF
:1051900051EC100B32463B46CDE9021001F0FAFA11
:1051A0009FED4B0B002D53EC102B04BF39463046BE
:1051B00001F0F2F9064640460F4601F0C2F90246F8
:1051C0000B463046394600F08DFF01F08BF906465C
:1051D000A0EB540006EB5401884268DA204657469B
:1051E0004FEA540A01F0C4F99FED3B0B53EC102B2E
:1051F00001F0D2F9019018EE100A0C4601F0B4FB50
:1052000000EE107AB8EE409A00EE10BAB8EE40AA5E
:1052100000EE109A9FED328A05468846B8EE40BAF5
:10522000CAF100094FEA4A0BB7EE00CA1CE000BF02
:1052300020EE091ABDEEC11A11EE101A20EE0A1A5C
:1052400020EE0B0ABDEEC11ABDEEC00A11EE102A07
:1052500010EE103A78B2FFF76FFE09F10109BBF1C9
:10526000010BAAF1010A22D006EB0907BAF1000FDF
:10527000B0EE4C0ADCD0504648BF484601F061F918
:10528000019A234600F0D6FF2A46434601F084F9EE
:1052900002460B46DDE9021001F07CFA00F0F0FE58
:1052A00000EE100AF0EE480A00F042F9C0E704B040
:1052B000BDEC0A8B01B0BDE8F08F00BF00BF00BF9E
:1052C0000000000000807640000000000000F03F79
:1052D0000000000000003F40000000000000E03F30
:1052E000CDCC4C3D10B5002460B20021002200233B
:1052F000FFF722FE01341F2CF6D1FFF761FD10BD30
:10530000B0B594B006AC20463821FBF7FCF8002578
:1053100000200595CDE90355CDE90155FCF748FD81
:105320004FF480710991402102200A9101210690D9
:10533000CDE90D000F911421CDE91010CDE9120037
:105340002046FDF799F870B90F2001900320CDE9B0
:10535000020501A80421CDE90455FCF71FFF002830
:1053600004BF14B0B0BDFBF731FD0000B0B582B092
:1053700040F62004C2F2000494ED000AB5EE001AD3
:10538000B4EE410A40F27C05F1EE10FAC2F20005DB
:1053900006DA40F2DC51C820009100F023F816E054
:1053A000B4EE410AF1EE10FA0EDDB6EE001AB4EEDC
:1053B000410AF1EE10FA07DA40F2DC516FF0C70053
:1053C000009100F00FF802E0012085F8700095EDE3
:1053D0000F0A94ED001A30EE010A84ED000A02B0C3
:1053E000B0BD0000B0B540F27C04C2F20004B4F9D4
:1053F0000030E26EC01A04F1300100EE100ADFED59
:10540000160A049DB8EEC00A0846904701EE105AED
:10541000B8EEC11AB4EE410A6842F1EE10FAC8BF04
:10542000B0EE410A01EE100AB8EEC11AB4EE410A1C
:1054300040F63800F1EE10FAB8BFB0EE410AC2F201
:10544000000080ED000AE06ABDEEC00A10EE101AFE
:105450000A46FFF72FFEB0BD00007A4680B58AB03D
:105460008C464FF40071B3F5017FC8BF40F2FF11C5
:1054700001910021CDE90211CDE90421CDE9061108
:10548000CDE9081101A96246FBF758FFB0FA80F098
:1054900040090AB080BD000010B590ED0A1A90EDE9
:1054A0000B2A30EE413A22EE032A31EE021A90ED39
:1054B000062A90ED076A32EE025A90ED023A31EE7A
:1054C000455A90ED034A35EE065A23EE053A83EE2F
:1054D000043A90ED016A90ED005A80ED0A1A31EE1F
:1054E000421A26EE000A044625EE011A20EE040AAE
:1054F00031EE000A94ED0C1A806AF5EE400AF1EEE6
:1055000010FA30EE030A31EE000A84ED072AA0619A
:10551000C8BF00F017F8206984ED0C0A28B194ED9B
:105520000C0AB1EE400A84ED0C0A94ED0C0A10BD91
:10553000B4EE600AF1EE10FAC8BFF0EE400AB0EE29
:10554000600A7047B1EE601AB4EE401AF1EE10FA3C
:10555000B4EE600AC8BFB0EE410AF1EE10FAC8BF5F
:10556000B0EE600A7047000080B500EE101AB8EE89
:10557000C00A032100F002F880BD000080B58CB0A5
:105580004268082342EA012203924FF080420492CB
:10559000002203290592CDE90632CDE90822CDE9A2
:1055A0000A220192009204D049B99FED081A20EE18
:1055B000010ABDEEC00A10EE101A09BA0091806906
:1055C00003A96A46FBF7BAFE0CB080BD0050C34782
:1055D000C0E9002381617047002848BF704700F090
:1055E0001F01012202FA01F14EF200124009CEF22F
:1055F000000242F8201070474EF60C50CEF2000028
:105600000068C0F3022070474EF6145300F00F02FA
:10561000CEF2000309011A4400F16043B0F1FF3FEC
:10562000C8BF03F564421170704700004EF60C517C
:10563000CEF200010A684FF6FF031A4060F30A2217
:1056400042F0806040F0FD700860704780B540F621
:10565000040040F2B441C2F20000C2F20001002294
:105660007B23FFF7B5FF80BD80B586B00021022205
:10567000CDE9001102920122CDE90321059169468D
:10568000FBF782FE002818BFFBF7A0FB06B080BD29
:1056900092B0FCF71DFBFFF733FEFEF721FAFEF791
:1056A000A5F9FEF7F5F9FEF7CBF9FEF753FAFEF789
:1056B00079FAFEF7B9FAFEF7E3FAFEF70BFBFEF70D
:1056C00097FA9FED420ADFED420A9FED421ADFEDA5
:1056D000421A9FED422ADFED422A02A8002100254E
:1056E000FFF7CAFC02AF40F2BC708ECFC2F20000DE
:1056F000DDE90664DDE908CE0DF1280B80E88E00B7
:105700000EAF9BE8000F8ECFC0E90464C0E906CE5F
:1057100000F1200C30308CE8000F8EC040F2906019
:10572000C2F20000FDF728FD40F2DC60C2F200008A
:10573000FDF722FD40F24460C2F20000FDF71CFDBF
:1057400040F2B444C2F200042046FFF7B9FB4FF424
:105750007A70FBF75BFD204600F08AF840F21850A3
:10576000C2F2000000F084F8FFF7BCFD40F2F03414
:1057700040F208069FED1B9AC2F20004C2F2000636
:105780000127B6EE008A00BF3068D4ED000A019010
:105790002820002170220623B0EE480A0097FFF768
:1057A000D7F994ED000A306879EE400A01907A202A
:1057B000672100220623B0EE480A0095FFF7CCFCD3
:1057C000FFF7FEFA0A20FBF721FDDDE7000080432A
:1057D00000009042000000006F12833A0060EA452A
:1057E0003333B33E00003443F0B581B040F640019E
:1057F000C2F2000140F604040968C2F20004054642
:105800002046FFF7B1FE05F47F40B0F5106F25D1BB
:10581000DDE90C56370A07F47F4040EA166000F0D5
:1058200090FE9FED0F0B53EC102B00F003FD00F0EA
:1058300027FCA060F8B266F30F2000F082FE9FED17
:105840000A0B53EC102B00F0F5FC00F019FC40F6AD
:105850002801C2F20001086028BAE06001B0F0BD82
:105860000000000000408F400000000000002440C5
:1058700010B50446FFF7F8FE2046FCF71DF9204658
:10588000FBF72AFA10BD5FEA400C08BF91F0000F49
:105890004FEA8C234FEAC12243EA51514FEA1C5090
:1058A00018BF00F5F0404FEA300018BF41F000414A
:1058B0005FEA6C5C00F02980BCF1FF3F08BF40F05C
:1058C00080407047130C06BF12044FF0100C4FF0CD
:1058D000000C130E04BF12020CF1080C130F04BFCE
:1058E00012010CF1040C930F04BF92000CF1020C96
:1058F000D30F04BF52000CF1010C11464FF000020F
:10590000A0F11F00A0EB0C00704711F0004F08BF82
:10591000704731F000413FF4D5AF0B0C06BF0904CE
:105920004FF0100C4FF0000C0B0E04BF09020CF1ED
:10593000080C0B0F04BF09010CF1040C8B0F04BF02
:1059400089000CF1020CCB0F04BF49000CF1010CD3
:10595000CCF1200322FA03F341EA030102FA0CF22C
:10596000A0EB0C0000F10100704723F07F4720F00E
:105970007F4C80EA030000F00040ACEB070303F526
:105980007C5303F1FF032DE9804909B44FEA144326
:1059900024EA03484FEA154B25EA0B4E0FF2042682
:1059A00006EB13273E7803FB0667C7F5000707FBE6
:1059B00006F64FEAD64606F102064FEA543707FBD1
:1059C000066CCCF1005C4FEA1C472CEA074C0CFB40
:1059D00006F507FB06F404EB15464FEA9616490850
:1059E0005FEA320234BF00204FF000404FEAD13767
:1059F00006FB07FC4FEA1C4C0CFB0BF7D21B03FB0E
:105A00000CF761EB07010CFB0EF7B0EB074072EBF4
:105A100017420CFB08F734BFA2EB0742B2EB074278
:105A200061EB17414FEA0C444FEA910706FB07FC74
:105A30004FEA1C4C0CFB0BF7B0EBC74072EB573234
:105A400003FB0CF734BFA2EBC742B2EBC74261EBDA
:105A500057310CFB0EF7B0EBC70072EB57720CFB23
:105A600008F734BFA2EBC702B2EBC70261EB577174
:105A70004FEA816141EA92114FEA826242EA901252
:105A80004FEA806004EBCC04039F4FEAD13706FB5A
:105A900007FC4FEA1C4C0CFB0BF7D21B03FB0CF76B
:105AA00061EB07010CFB0EF7B0EB074072EB1742FE
:105AB0000CFB08F734BFA2EB0742B2EB074261EBE5
:105AC00017414FEA8C5504EB9C244FEA910706FBE3
:105AD00007FC4FEA1C4C0CFB0BF7B0EBC74072EB1A
